{
  "contractName": "Draudimas",
  "abi": [
    {
      "inputs": [
        {
          "internalType": "address",
          "name": "_klientoAddr",
          "type": "address"
        },
        {
          "internalType": "uint256",
          "name": "_amzius",
          "type": "uint256"
        },
        {
          "internalType": "enum Draudimas.sveikatosTipas",
          "name": "_sveikata",
          "type": "uint8"
        },
        {
          "internalType": "enum Draudimas.profesijosTipas",
          "name": "_profesija",
          "type": "uint8"
        }
      ],
      "stateMutability": "nonpayable",
      "type": "constructor"
    },
    {
      "anonymous": false,
      "inputs": [
        {
          "indexed": false,
          "internalType": "uint256",
          "name": "suma",
          "type": "uint256"
        },
        {
          "indexed": false,
          "internalType": "address",
          "name": "draudejas",
          "type": "address"
        }
      ],
      "name": "gauta",
      "type": "event"
    },
    {
      "anonymous": false,
      "inputs": [
        {
          "indexed": false,
          "internalType": "uint256",
          "name": "suma",
          "type": "uint256"
        },
        {
          "indexed": false,
          "internalType": "address",
          "name": "moketojas",
          "type": "address"
        }
      ],
      "name": "sumoketa",
      "type": "event"
    },
    {
      "anonymous": false,
      "inputs": [
        {
          "indexed": false,
          "internalType": "enum Draudimas.ivykioTipas",
          "name": "ivykis",
          "type": "uint8"
        },
        {
          "indexed": false,
          "internalType": "address",
          "name": "klientas",
          "type": "address"
        }
      ],
      "name": "uzregistruota",
      "type": "event"
    },
    {
      "inputs": [],
      "name": "draudejas",
      "outputs": [
        {
          "internalType": "address",
          "name": "draudejoAddr",
          "type": "address"
        }
      ],
      "stateMutability": "view",
      "type": "function",
      "constant": true
    },
    {
      "inputs": [],
      "name": "klientas",
      "outputs": [
        {
          "internalType": "address",
          "name": "klientoAddr",
          "type": "address"
        },
        {
          "internalType": "uint256",
          "name": "amzius",
          "type": "uint256"
        },
        {
          "internalType": "enum Draudimas.sveikatosTipas",
          "name": "sveikatosBukle",
          "type": "uint8"
        },
        {
          "internalType": "enum Draudimas.profesijosTipas",
          "name": "profesija",
          "type": "uint8"
        }
      ],
      "stateMutability": "view",
      "type": "function",
      "constant": true
    },
    {
      "inputs": [
        {
          "internalType": "uint256",
          "name": "",
          "type": "uint256"
        }
      ],
      "name": "menesiai",
      "outputs": [
        {
          "internalType": "uint256",
          "name": "suma",
          "type": "uint256"
        },
        {
          "internalType": "bool",
          "name": "sumokejo",
          "type": "bool"
        },
        {
          "internalType": "uint256",
          "name": "ivykiuSkaicius",
          "type": "uint256"
        },
        {
          "internalType": "uint256",
          "name": "ismoketaSuma",
          "type": "uint256"
        }
      ],
      "stateMutability": "view",
      "type": "function",
      "constant": true
    },
    {
      "inputs": [],
      "name": "skaiciuotiSuma",
      "outputs": [],
      "stateMutability": "nonpayable",
      "type": "function"
    },
    {
      "inputs": [],
      "name": "sumoketi",
      "outputs": [],
      "stateMutability": "payable",
      "type": "function",
      "payable": true
    },
    {
      "inputs": [
        {
          "internalType": "enum Draudimas.ivykioTipas",
          "name": "ivykioLygis",
          "type": "uint8"
        }
      ],
      "name": "uzregistruotiIvyki",
      "outputs": [],
      "stateMutability": "nonpayable",
      "type": "function"
    },
    {
      "inputs": [
        {
          "internalType": "uint256",
          "name": "n",
          "type": "uint256"
        },
        {
          "internalType": "enum Draudimas.ivykioTipas",
          "name": "ivykioLygis",
          "type": "uint8"
        }
      ],
      "name": "ismoka",
      "outputs": [],
      "stateMutability": "payable",
      "type": "function",
      "payable": true
    },
    {
      "inputs": [],
      "name": "getKlientas",
      "outputs": [
        {
          "internalType": "address",
          "name": "klientoAddr",
          "type": "address"
        },
        {
          "internalType": "uint256",
          "name": "amzius",
          "type": "uint256"
        },
        {
          "internalType": "enum Draudimas.sveikatosTipas",
          "name": "sveikata",
          "type": "uint8"
        },
        {
          "internalType": "enum Draudimas.profesijosTipas",
          "name": "profesija",
          "type": "uint8"
        }
      ],
      "stateMutability": "view",
      "type": "function",
      "constant": true
    },
    {
      "inputs": [],
      "name": "getDraudejas",
      "outputs": [
        {
          "internalType": "address",
          "name": "draudejoAddr",
          "type": "address"
        }
      ],
      "stateMutability": "view",
      "type": "function",
      "constant": true
    },
    {
      "inputs": [
        {
          "internalType": "uint256",
          "name": "i",
          "type": "uint256"
        }
      ],
      "name": "gautiMenesi",
      "outputs": [
        {
          "internalType": "uint256",
          "name": "suma",
          "type": "uint256"
        },
        {
          "internalType": "bool",
          "name": "sumokejo",
          "type": "bool"
        },
        {
          "internalType": "uint256",
          "name": "ivykiuSkaicius",
          "type": "uint256"
        },
        {
          "internalType": "uint256",
          "name": "ismoketaSuma",
          "type": "uint256"
        }
      ],
      "stateMutability": "view",
      "type": "function",
      "constant": true
    }
  ],
  "bytecode": "0x608060405234801561000f575f5ffd5b50604051611a76380380611a768339818101604052810190610031919061054a565b6012831015610075576040517f08c379a000000000000000000000000000000000000000000000000000000000815260040161006c90610608565b60405180910390fd5b8373ffffffffffffffffffffffffffffffffffffffff163373ffffffffffffffffffffffffffffffffffffffff16036100e3576040517f08c379a00000000000000000000000000000000000000000000000000000000081526004016100da90610670565b60405180910390fd5b60405180602001604052803373ffffffffffffffffffffffffffffffffffffffff168152505f5f820151815f015f6101000a81548173ffffffffffffffffffffffffffffffffffffffff021916908373ffffffffffffffffffffffffffffffffffffffff16021790555090505060405180608001604052808573ffffffffffffffffffffffffffffffffffffffff1681526020018481526020018360048111156101905761018f61068e565b5b81526020018260038111156101a8576101a761068e565b5b81525060015f820151815f015f6101000a81548173ffffffffffffffffffffffffffffffffffffffff021916908373ffffffffffffffffffffffffffffffffffffffff160217905550602082015181600101556040820151816002015f6101000a81548160ff021916908360048111156102255761022461068e565b5b021790555060608201518160020160016101000a81548160ff021916908360038111156102555761025461068e565b5b021790555090505061026b61027460201b60201c565b5050505061088c565b5f5f015f9054906101000a900473ffffffffffffffffffffffffffffffffffffffff1673ffffffffffffffffffffffffffffffffffffffff163373ffffffffffffffffffffffffffffffffffffffff1614610304576040517f08c379a00000000000000000000000000000000000000000000000000000000081526004016102fb9061072b565b60405180910390fd5b5f60646001806002015f9054906101000a900460ff16600481111561032c5761032b61068e565b5b6103369190610776565b61034091906107a9565b606460018060020160019054906101000a900460ff1660038111156103685761036761068e565b5b6103729190610776565b61037c91906107a9565b6064600a600180015461038f9190610817565b61039991906107a9565b6103a39190610776565b6103ad9190610776565b9050600460405180608001604052808381526020015f151581526020015f81526020015f815250908060018154018082558091505060019003905f5260205f2090600402015f909190919091505f820151815f01556020820151816001015f6101000a81548160ff021916908315150217905550604082015181600201556060820151816003015550507f2e46c8fcad6b9583734b0c29e587f0d9e237d4df447a8b7d9ff90000b27cbb798133604051610468929190610865565b60405180910390a150565b5f5ffd5b5f73ffffffffffffffffffffffffffffffffffffffff82169050919050565b5f6104a082610477565b9050919050565b6104b081610496565b81146104ba575f5ffd5b50565b5f815190506104cb816104a7565b92915050565b5f819050919050565b6104e3816104d1565b81146104ed575f5ffd5b50565b5f815190506104fe816104da565b92915050565b60058110610510575f5ffd5b50565b5f8151905061052181610504565b92915050565b60048110610533575f5ffd5b50565b5f8151905061054481610527565b92915050565b5f5f5f5f6080858703121561056257610561610473565b5b5f61056f878288016104bd565b9450506020610580878288016104f0565b935050604061059187828801610513565b92505060606105a287828801610536565b91505092959194509250565b5f82825260208201905092915050565b7f4b6c69656e746173207475726920627574692070696c6e616d657469730000005f82015250565b5f6105f2601d836105ae565b91506105fd826105be565b602082019050919050565b5f6020820190508181035f83015261061f816105e6565b9050919050565b7f4472617564656a6173206e6567616c692062757469206b6c69656e74617300005f82015250565b5f61065a601e836105ae565b915061066582610626565b602082019050919050565b5f6020820190508181035f8301526106878161064e565b9050919050565b7f4e487b71000000000000000000000000000000000000000000000000000000005f52602160045260245ffd5b7f536b61696369756f74692073756d612067616c692074696b206472617564656a5f8201527f6173000000000000000000000000000000000000000000000000000000000000602082015250565b5f6107156022836105ae565b9150610720826106bb565b604082019050919050565b5f6020820190508181035f83015261074281610709565b9050919050565b7f4e487b71000000000000000000000000000000000000000000000000000000005f52601160045260245ffd5b5f610780826104d1565b915061078b836104d1565b92508282019050808211156107a3576107a2610749565b5b92915050565b5f6107b3826104d1565b91506107be836104d1565b92508282026107cc816104d1565b915082820484148315176107e3576107e2610749565b5b5092915050565b7f4e487b71000000000000000000000000000000000000000000000000000000005f52601260045260245ffd5b5f610821826104d1565b915061082c836104d1565b92508261083c5761083b6107ea565b5b828204905092915050565b610850816104d1565b82525050565b61085f81610496565b82525050565b5f6040820190506108785f830185610847565b6108856020830184610856565b9392505050565b6111dd806108995f395ff3fe608060405260043610610090575f3560e01c8063aa0484ef11610058578063aa0484ef1461017f578063bcc0e8e3146101a9578063c5d53a07146101d1578063d1a69202146101fe578063d33ad50e1461021a57610090565b80632f5bc429146100945780636ab00788146100c15780638484c1121461010057806395356e751461012a57806397d4b74c14610140575b5f5ffd5b34801561009f575f5ffd5b506100a8610224565b6040516100b89493929190610c2d565b60405180910390f35b3480156100cc575f5ffd5b506100e760048036038101906100e29190610c9e565b610287565b6040516100f79493929190610ce3565b60405180910390f35b34801561010b575f5ffd5b506101146102ce565b6040516101219190610d26565b60405180910390f35b348015610135575f5ffd5b5061013e6102fc565b005b34801561014b575f5ffd5b5061016660048036038101906101619190610c9e565b6104fb565b6040516101769493929190610ce3565b60405180910390f35b34801561018a575f5ffd5b50610193610551565b6040516101a09190610d26565b60405180910390f35b3480156101b4575f5ffd5b506101cf60048036038101906101ca9190610d62565b61057a565b005b3480156101dc575f5ffd5b506101e56107a0565b6040516101f59493929190610c2d565b60405180910390f35b61021860048036038101906102139190610d8d565b6107f5565b005b61022261094e565b005b5f5f5f5f5f60019050805f015f9054906101000a900473ffffffffffffffffffffffffffffffffffffffff168160010154826002015f9054906101000a900460ff168360020160019054906101000a900460ff1694509450945094505090919293565b60048181548110610296575f80fd5b905f5260205f2090600402015f91509050805f015490806001015f9054906101000a900460ff16908060020154908060030154905084565b5f5f5f9050805f015f9054906101000a900473ffffffffffffffffffffffffffffffffffffffff1691505090565b5f5f015f9054906101000a900473ffffffffffffffffffffffffffffffffffffffff1673ffffffffffffffffffffffffffffffffffffffff163373ffffffffffffffffffffffffffffffffffffffff161461038c576040517f08c379a000000000000000000000000000000000000000000000000000000000815260040161038390610e4b565b60405180910390fd5b5f60646001806002015f9054906101000a900460ff1660048111156103b4576103b3610b74565b5b6103be9190610e96565b6103c89190610ec9565b606460018060020160019054906101000a900460ff1660038111156103f0576103ef610b74565b5b6103fa9190610e96565b6104049190610ec9565b6064600a60018001546104179190610f37565b6104219190610ec9565b61042b9190610e96565b6104359190610e96565b9050600460405180608001604052808381526020015f151581526020015f81526020015f815250908060018154018082558091505060019003905f5260205f2090600402015f909190919091505f820151815f01556020820151816001015f6101000a81548160ff021916908315150217905550604082015181600201556060820151816003015550507f2e46c8fcad6b9583734b0c29e587f0d9e237d4df447a8b7d9ff90000b27cbb7981336040516104f0929190610f67565b60405180910390a150565b5f5f5f5f5f6004868154811061051457610513610f8e565b5b905f5260205f2090600402019050805f0154816001015f9054906101000a900460ff16826002015483600301549450945094509450509193509193565b5f805f015f9054906101000a900473ffffffffffffffffffffffffffffffffffffffff16905081565b60015f015f9054906101000a900473ffffffffffffffffffffffffffffffffffffffff1673ffffffffffffffffffffffffffffffffffffffff163373ffffffffffffffffffffffffffffffffffffffff161461060b576040517f08c379a00000000000000000000000000000000000000000000000000000000081526004016106029061102b565b60405180910390fd5b5f60048054905011610652576040517f08c379a0000000000000000000000000000000000000000000000000000000008152600401610649906110b9565b60405180910390fd5b5f7fffffffffffffffffffffffffffffffffffffffffffffffffffffffffffffffff90505f5f90505b6004805490508110156106d45760011515600482815481106106a05761069f610f8e565b5b905f5260205f2090600402016001015f9054906101000a900460ff161515036106c7578091505b808060010191505061067b565b507fffffffffffffffffffffffffffffffffffffffffffffffffffffffffffffffff8103610737576040517f08c379a000000000000000000000000000000000000000000000000000000000815260040161072e90611121565b60405180910390fd5b61074181836107f5565b7fceeefcb457fa652a5d548c9be1ff7e23ec8ff5fd7b4eb405ceec3cc31fd3677c6004828154811061077657610775610f8e565b5b905f5260205f2090600402015f015433604051610794929190610f67565b60405180910390a15050565b6001805f015f9054906101000a900473ffffffffffffffffffffffffffffffffffffffff1690806001015490806002015f9054906101000a900460ff16908060020160019054906101000a900460ff16905084565b6064600182600281111561080c5761080b610b74565b5b6108169190610e96565b6108209190610ec9565b6004838154811061083457610833610f8e565b5b905f5260205f2090600402016003015461084e9190610e96565b6004838154811061086257610861610f8e565b5b905f5260205f2090600402016003018190555060016004838154811061088b5761088a610f8e565b5b905f5260205f209060040201600201546108a59190610e96565b600483815481106108b9576108b8610f8e565b5b905f5260205f209060040201600201819055507fceeefcb457fa652a5d548c9be1ff7e23ec8ff5fd7b4eb405ceec3cc31fd3677c6004838154811061090157610900610f8e565b5b905f5260205f209060040201600301545f5f015f9054906101000a900473ffffffffffffffffffffffffffffffffffffffff16604051610942929190610f67565b60405180910390a15050565b60015f015f9054906101000a900473ffffffffffffffffffffffffffffffffffffffff1673ffffffffffffffffffffffffffffffffffffffff163373ffffffffffffffffffffffffffffffffffffffff16146109df576040517f08c379a00000000000000000000000000000000000000000000000000000000081526004016109d690611189565b60405180910390fd5b5f60048054905011610a26576040517f08c379a0000000000000000000000000000000000000000000000000000000008152600401610a1d906110b9565b60405180910390fd5b5f5f90505b600480549050811015610b1a575f151560048281548110610a4f57610a4e610f8e565b5b905f5260205f2090600402016001015f9054906101000a900460ff16151503610b0d57600160048281548110610a8857610a87610f8e565b5b905f5260205f2090600402016001015f6101000a81548160ff0219169083151502179055507fceeefcb457fa652a5d548c9be1ff7e23ec8ff5fd7b4eb405ceec3cc31fd3677c60048281548110610ae257610ae1610f8e565b5b905f5260205f2090600402015f015433604051610b00929190610f67565b60405180910390a1610b1a565b8080600101915050610a2b565b50565b5f73ffffffffffffffffffffffffffffffffffffffff82169050919050565b5f610b4682610b1d565b9050919050565b610b5681610b3c565b82525050565b5f819050919050565b610b6e81610b5c565b82525050565b7f4e487b71000000000000000000000000000000000000000000000000000000005f52602160045260245ffd5b60058110610bb257610bb1610b74565b5b50565b5f819050610bc282610ba1565b919050565b5f610bd182610bb5565b9050919050565b610be181610bc7565b82525050565b60048110610bf857610bf7610b74565b5b50565b5f819050610c0882610be7565b919050565b5f610c1782610bfb565b9050919050565b610c2781610c0d565b82525050565b5f608082019050610c405f830187610b4d565b610c4d6020830186610b65565b610c5a6040830185610bd8565b610c676060830184610c1e565b95945050505050565b5f5ffd5b610c7d81610b5c565b8114610c87575f5ffd5b50565b5f81359050610c9881610c74565b92915050565b5f60208284031215610cb357610cb2610c70565b5b5f610cc084828501610c8a565b91505092915050565b5f8115159050919050565b610cdd81610cc9565b82525050565b5f608082019050610cf65f830187610b65565b610d036020830186610cd4565b610d106040830185610b65565b610d1d6060830184610b65565b95945050505050565b5f602082019050610d395f830184610b4d565b92915050565b60038110610d4b575f5ffd5b50565b5f81359050610d5c81610d3f565b92915050565b5f60208284031215610d7757610d76610c70565b5b5f610d8484828501610d4e565b91505092915050565b5f5f60408385031215610da357610da2610c70565b5b5f610db085828601610c8a565b9250506020610dc185828601610d4e565b9150509250929050565b5f82825260208201905092915050565b7f536b61696369756f74692073756d612067616c692074696b206472617564656a5f8201527f6173000000000000000000000000000000000000000000000000000000000000602082015250565b5f610e35602283610dcb565b9150610e4082610ddb565b604082019050919050565b5f6020820190508181035f830152610e6281610e29565b9050919050565b7f4e487b71000000000000000000000000000000000000000000000000000000005f52601160045260245ffd5b5f610ea082610b5c565b9150610eab83610b5c565b9250828201905080821115610ec357610ec2610e69565b5b92915050565b5f610ed382610b5c565b9150610ede83610b5c565b9250828202610eec81610b5c565b91508282048414831517610f0357610f02610e69565b5b5092915050565b7f4e487b71000000000000000000000000000000000000000000000000000000005f52601260045260245ffd5b5f610f4182610b5c565b9150610f4c83610b5c565b925082610f5c57610f5b610f0a565b5b828204905092915050565b5f604082019050610f7a5f830185610b65565b610f876020830184610b4d565b9392505050565b7f4e487b71000000000000000000000000000000000000000000000000000000005f52603260045260245ffd5b7f557a72656769737472756f7469206976796b692067616c692074696b206b6c695f8201527f656e746173000000000000000000000000000000000000000000000000000000602082015250565b5f611015602583610dcb565b915061102082610fbb565b604082019050919050565b5f6020820190508181035f83015261104281611009565b9050919050565b7f4472617564656a6173206e6570617465696b65206e6569207669656e6f7320735f8201527f756d6f7300000000000000000000000000000000000000000000000000000000602082015250565b5f6110a3602483610dcb565b91506110ae82611049565b604082019050919050565b5f6020820190508181035f8301526110d081611097565b9050919050565b7f6e65726120757a6d6f6b65746f206d656e6573696f00000000000000000000005f82015250565b5f61110b601583610dcb565b9150611116826110d7565b602082019050919050565b5f6020820190508181035f830152611138816110ff565b9050919050565b7f53756d6f6b6574692067616c692074696b206b6c69656e7461730000000000005f82015250565b5f611173601a83610dcb565b915061117e8261113f565b602082019050919050565b5f6020820190508181035f8301526111a081611167565b905091905056fea2646970667358221220b8389bdf23606f3f0bb228682351c6d05d9c017b93117e22d47d403ce9691ef864736f6c634300081e0033",
  "immutableReferences": {},
  "source": "// SPDX-License-Identifier: MIT\r\n\r\npragma solidity >=0.7.0 <0.9.0;\r\n\r\n/** \r\n * @title Draudimas\r\n * @dev Kliento apdraudimo implementacija\r\n */\r\ncontract Draudimas {\r\n\r\n    event gauta(uint suma, address draudejas);\r\n    event sumoketa(uint suma, address moketojas);\r\n    event uzregistruota(ivykioTipas ivykis, address klientas);\r\n\r\n    struct Draudejas {\r\n        address draudejoAddr;\r\n    }\r\n\r\n    struct Klientas {\r\n        address klientoAddr;\r\n        uint amzius;\r\n        sveikatosTipas sveikatosBukle;\r\n        //vairavimo istorija\r\n        profesijosTipas profesija;\r\n    }\r\n\r\n    struct Menesis {\r\n        uint suma;\r\n        bool sumokejo;\r\n        uint ivykiuSkaicius;\r\n        uint ismoketaSuma;\r\n    }\r\n\r\n    enum sveikatosTipas {\r\n        Tobula,\r\n        Gera,\r\n        Vidutine,\r\n        Prasta,\r\n        Bloga\r\n    }\r\n\r\n    enum profesijosTipas {\r\n        Studentas,\r\n        Protinis,\r\n        Fizinis,\r\n        Bedarbis\r\n    }\r\n\r\n    enum ivykioTipas {\r\n        Smulkus,\r\n        Vidutinis,\r\n        Stiprus\r\n    }\r\n\r\n   Draudejas public draudejas;\r\n   Klientas public klientas;\r\n   Menesis[] public menesiai;\r\n\r\n    constructor(address _klientoAddr, uint _amzius, sveikatosTipas _sveikata, profesijosTipas _profesija) {\r\n            require(_amzius >= 18, \"Klientas turi buti pilnametis\");\r\n            require(msg.sender != _klientoAddr, \"Draudejas negali buti klientas\");\r\n\r\n            draudejas = Draudejas({draudejoAddr: msg.sender});\r\n            klientas = Klientas({klientoAddr: _klientoAddr, amzius: _amzius, sveikatosBukle: _sveikata, profesija: _profesija});\r\n            skaiciuotiSuma();\r\n    }\r\n\r\n    function skaiciuotiSuma() public {\r\n            require(msg.sender == draudejas.draudejoAddr, \"Skaiciuoti suma gali tik draudejas\");\r\n            uint reikiamaSuma = (klientas.amzius / 10) * 100 + (uint(klientas.profesija) + 1) * 100 + (uint(klientas.sveikatosBukle) + 1) * 100;\r\n            menesiai.push(Menesis({suma: reikiamaSuma, sumokejo: false, ivykiuSkaicius: 0, ismoketaSuma: 0}));\r\n            emit gauta(reikiamaSuma, msg.sender);\r\n    }\r\n\r\n    function sumoketi() public payable {\r\n        require(msg.sender == klientas.klientoAddr, \"Sumoketi gali tik klientas\");\r\n        require(menesiai.length > 0, \"Draudejas nepateike nei vienos sumos\");\r\n        for (uint i=0; i < menesiai.length; i++) {\r\n            if (menesiai[i].sumokejo == false) {\r\n                menesiai[i].sumokejo = true;\r\n                emit sumoketa(menesiai[i].suma, msg.sender);\r\n                break;\r\n            }\r\n        }\r\n    }\r\n\r\n    function uzregistruotiIvyki(ivykioTipas ivykioLygis) public {\r\n        require(msg.sender == klientas.klientoAddr, \"Uzregistruoti ivyki gali tik klientas\");\r\n        require(menesiai.length > 0, \"Draudejas nepateike nei vienos sumos\");\r\n        int n = -1;\r\n        for (uint i=0; i < menesiai.length; i++) {\r\n            if (menesiai[i].sumokejo == true) {\r\n                n = int(i);\r\n            }\r\n        }\r\n        require(n != -1, \"nera uzmoketo menesio\");\r\n        ismoka(uint(n), ivykioLygis);\r\n        emit sumoketa(menesiai[uint(n)].suma, msg.sender);\r\n    }\r\n\r\n    function ismoka(uint n, ivykioTipas ivykioLygis) public payable {\r\n        menesiai[n].ismoketaSuma = menesiai[n].ismoketaSuma + (uint(ivykioLygis) + 1) * 100;\r\n        menesiai[n].ivykiuSkaicius = menesiai[n].ivykiuSkaicius + 1;\r\n        emit sumoketa(menesiai[n].ismoketaSuma, draudejas.draudejoAddr);\r\n    }\r\n\r\n    function getKlientas() external view returns (address klientoAddr, uint amzius, sveikatosTipas sveikata, profesijosTipas profesija) {\r\n    Klientas storage k = klientas;\r\n    return (k.klientoAddr, k.amzius, k.sveikatosBukle, k.profesija);\r\n    }\r\n\r\n    function getDraudejas() external view returns (address draudejoAddr) {\r\n    Draudejas storage d = draudejas;\r\n    return (d.draudejoAddr);\r\n    }\r\n\r\n    function gautiMenesi(uint i) public view returns(uint suma, bool sumokejo, uint ivykiuSkaicius, uint ismoketaSuma) {\r\n        Menesis storage m = menesiai[i];\r\n        return (m.suma, m.sumokejo, m.ivykiuSkaicius, m.ismoketaSuma);\r\n    }\r\n}",
  "sourcePath": "C:\\Users\\gurkl\\OneDrive\\Stalinis kompiuteris\\smart_contract\\contracts\\Draudimas.sol",
  "compiler": {
    "name": "solc",
    "version": "0.8.30+commit.73712a01.Emscripten.clang"
  },
  "schemaVersion": "3.4.16",
  "updatedAt": "2025-12-16T10:31:22.553Z",
  "networkType": "ethereum",
  "devdoc": {
    "details": "Kliento apdraudimo implementacija",
    "kind": "dev",
    "methods": {},
    "title": "Draudimas",
    "version": 1
  },
  "userdoc": {
    "kind": "user",
    "methods": {},
    "version": 1
  }
}