{
  "contractName": "Draudimas",
  "abi": [
    {
      "inputs": [
        {
          "internalType": "address",
          "name": "_klientoAddr",
          "type": "address"
        },
        {
          "internalType": "uint256",
          "name": "_amzius",
          "type": "uint256"
        },
        {
          "internalType": "enum Draudimas.sveikatosTipas",
          "name": "_sveikata",
          "type": "uint8"
        },
        {
          "internalType": "enum Draudimas.profesijosTipas",
          "name": "_profesija",
          "type": "uint8"
        }
      ],
      "stateMutability": "nonpayable",
      "type": "constructor"
    },
    {
      "anonymous": false,
      "inputs": [
        {
          "indexed": false,
          "internalType": "uint256",
          "name": "suma",
          "type": "uint256"
        },
        {
          "indexed": false,
          "internalType": "address",
          "name": "draudejas",
          "type": "address"
        }
      ],
      "name": "gauta",
      "type": "event"
    },
    {
      "anonymous": false,
      "inputs": [
        {
          "indexed": false,
          "internalType": "uint256",
          "name": "suma",
          "type": "uint256"
        },
        {
          "indexed": false,
          "internalType": "address",
          "name": "moketojas",
          "type": "address"
        }
      ],
      "name": "sumoketa",
      "type": "event"
    },
    {
      "anonymous": false,
      "inputs": [
        {
          "indexed": false,
          "internalType": "enum Draudimas.ivykioTipas",
          "name": "ivykis",
          "type": "uint8"
        },
        {
          "indexed": false,
          "internalType": "address",
          "name": "klientas",
          "type": "address"
        }
      ],
      "name": "uzregistruota",
      "type": "event"
    },
    {
      "inputs": [],
      "name": "draudejas",
      "outputs": [
        {
          "internalType": "address",
          "name": "draudejoAddr",
          "type": "address"
        }
      ],
      "stateMutability": "view",
      "type": "function",
      "constant": true
    },
    {
      "inputs": [],
      "name": "klientas",
      "outputs": [
        {
          "internalType": "address",
          "name": "klientoAddr",
          "type": "address"
        },
        {
          "internalType": "uint256",
          "name": "amzius",
          "type": "uint256"
        },
        {
          "internalType": "enum Draudimas.sveikatosTipas",
          "name": "sveikatosBukle",
          "type": "uint8"
        },
        {
          "internalType": "enum Draudimas.profesijosTipas",
          "name": "profesija",
          "type": "uint8"
        }
      ],
      "stateMutability": "view",
      "type": "function",
      "constant": true
    },
    {
      "inputs": [
        {
          "internalType": "uint256",
          "name": "",
          "type": "uint256"
        }
      ],
      "name": "menesiai",
      "outputs": [
        {
          "internalType": "uint256",
          "name": "suma",
          "type": "uint256"
        },
        {
          "internalType": "bool",
          "name": "sumoketa",
          "type": "bool"
        },
        {
          "internalType": "uint256",
          "name": "ivykiuSkaicius",
          "type": "uint256"
        },
        {
          "internalType": "uint256",
          "name": "ismoketaSuma",
          "type": "uint256"
        }
      ],
      "stateMutability": "view",
      "type": "function",
      "constant": true
    },
    {
      "inputs": [],
      "name": "skaiciuotiSuma",
      "outputs": [],
      "stateMutability": "nonpayable",
      "type": "function"
    },
    {
      "inputs": [],
      "name": "sumoketi",
      "outputs": [],
      "stateMutability": "payable",
      "type": "function",
      "payable": true
    },
    {
      "inputs": [
        {
          "internalType": "enum Draudimas.ivykioTipas",
          "name": "ivykioLygis",
          "type": "uint8"
        }
      ],
      "name": "uzregistruotiIvyki",
      "outputs": [],
      "stateMutability": "nonpayable",
      "type": "function"
    },
    {
      "inputs": [
        {
          "internalType": "uint256",
          "name": "n",
          "type": "uint256"
        },
        {
          "internalType": "enum Draudimas.ivykioTipas",
          "name": "ivykioLygis",
          "type": "uint8"
        }
      ],
      "name": "ismoka",
      "outputs": [],
      "stateMutability": "payable",
      "type": "function",
      "payable": true
    }
  ],
  "bytecode": "0x608060405234801561000f575f5ffd5b506040516118d83803806118d88339818101604052810190610031919061054a565b6012831015610075576040517f08c379a000000000000000000000000000000000000000000000000000000000815260040161006c90610608565b60405180910390fd5b8373ffffffffffffffffffffffffffffffffffffffff163373ffffffffffffffffffffffffffffffffffffffff16036100e3576040517f08c379a00000000000000000000000000000000000000000000000000000000081526004016100da90610670565b60405180910390fd5b60405180602001604052803373ffffffffffffffffffffffffffffffffffffffff168152505f5f820151815f015f6101000a81548173ffffffffffffffffffffffffffffffffffffffff021916908373ffffffffffffffffffffffffffffffffffffffff16021790555090505060405180608001604052808573ffffffffffffffffffffffffffffffffffffffff1681526020018481526020018360048111156101905761018f61068e565b5b81526020018260038111156101a8576101a761068e565b5b81525060015f820151815f015f6101000a81548173ffffffffffffffffffffffffffffffffffffffff021916908373ffffffffffffffffffffffffffffffffffffffff160217905550602082015181600101556040820151816002015f6101000a81548160ff021916908360048111156102255761022461068e565b5b021790555060608201518160020160016101000a81548160ff021916908360038111156102555761025461068e565b5b021790555090505061026b61027460201b60201c565b5050505061088c565b5f5f015f9054906101000a900473ffffffffffffffffffffffffffffffffffffffff1673ffffffffffffffffffffffffffffffffffffffff163373ffffffffffffffffffffffffffffffffffffffff1614610304576040517f08c379a00000000000000000000000000000000000000000000000000000000081526004016102fb9061072b565b60405180910390fd5b5f60646001806002015f9054906101000a900460ff16600481111561032c5761032b61068e565b5b6103369190610776565b61034091906107a9565b606460018060020160019054906101000a900460ff1660038111156103685761036761068e565b5b6103729190610776565b61037c91906107a9565b6064600a600180015461038f9190610817565b61039991906107a9565b6103a39190610776565b6103ad9190610776565b9050600460405180608001604052808381526020015f151581526020015f81526020015f815250908060018154018082558091505060019003905f5260205f2090600402015f909190919091505f820151815f01556020820151816001015f6101000a81548160ff021916908315150217905550604082015181600201556060820151816003015550507f2e46c8fcad6b9583734b0c29e587f0d9e237d4df447a8b7d9ff90000b27cbb798133604051610468929190610865565b60405180910390a150565b5f5ffd5b5f73ffffffffffffffffffffffffffffffffffffffff82169050919050565b5f6104a082610477565b9050919050565b6104b081610496565b81146104ba575f5ffd5b50565b5f815190506104cb816104a7565b92915050565b5f819050919050565b6104e3816104d1565b81146104ed575f5ffd5b50565b5f815190506104fe816104da565b92915050565b60058110610510575f5ffd5b50565b5f8151905061052181610504565b92915050565b60048110610533575f5ffd5b50565b5f8151905061054481610527565b92915050565b5f5f5f5f6080858703121561056257610561610473565b5b5f61056f878288016104bd565b9450506020610580878288016104f0565b935050604061059187828801610513565b92505060606105a287828801610536565b91505092959194509250565b5f82825260208201905092915050565b7f4b6c69656e746173207475726920627574692070696c6e616d657469730000005f82015250565b5f6105f2601d836105ae565b91506105fd826105be565b602082019050919050565b5f6020820190508181035f83015261061f816105e6565b9050919050565b7f4472617564656a6173206e6567616c692062757469206b6c69656e74617300005f82015250565b5f61065a601e836105ae565b915061066582610626565b602082019050919050565b5f6020820190508181035f8301526106878161064e565b9050919050565b7f4e487b71000000000000000000000000000000000000000000000000000000005f52602160045260245ffd5b7f536b61696369756f74692073756d612067616c692074696b206472617564656a5f8201527f6173000000000000000000000000000000000000000000000000000000000000602082015250565b5f6107156022836105ae565b9150610720826106bb565b604082019050919050565b5f6020820190508181035f83015261074281610709565b9050919050565b7f4e487b71000000000000000000000000000000000000000000000000000000005f52601160045260245ffd5b5f610780826104d1565b915061078b836104d1565b92508282019050808211156107a3576107a2610749565b5b92915050565b5f6107b3826104d1565b91506107be836104d1565b92508282026107cc816104d1565b915082820484148315176107e3576107e2610749565b5b5092915050565b7f4e487b71000000000000000000000000000000000000000000000000000000005f52601260045260245ffd5b5f610821826104d1565b915061082c836104d1565b92508261083c5761083b6107ea565b5b828204905092915050565b610850816104d1565b82525050565b61085f81610496565b82525050565b5f6040820190506108785f830185610847565b6108856020830184610856565b9392505050565b61103f806108995f395ff3fe60806040526004361061006f575f3560e01c8063bcc0e8e31161004d578063bcc0e8e3146100f2578063c5d53a071461011a578063d1a6920214610147578063d33ad50e146101635761006f565b80636ab007881461007357806395356e75146100b2578063aa0484ef146100c8575b5f5ffd5b34801561007e575f5ffd5b50610099600480360381019061009491906109b6565b61016d565b6040516100a99493929190610a0a565b60405180910390f35b3480156100bd575f5ffd5b506100c66101b4565b005b3480156100d3575f5ffd5b506100dc6103b3565b6040516100e99190610a8c565b60405180910390f35b3480156100fd575f5ffd5b5061011860048036038101906101139190610ac8565b6103dc565b005b348015610125575f5ffd5b5061012e610602565b60405161013e9493929190610bac565b60405180910390f35b610161600480360381019061015c9190610bef565b610657565b005b61016b6107b0565b005b6004818154811061017c575f80fd5b905f5260205f2090600402015f91509050805f015490806001015f9054906101000a900460ff16908060020154908060030154905084565b5f5f015f9054906101000a900473ffffffffffffffffffffffffffffffffffffffff1673ffffffffffffffffffffffffffffffffffffffff163373ffffffffffffffffffffffffffffffffffffffff1614610244576040517f08c379a000000000000000000000000000000000000000000000000000000000815260040161023b90610cad565b60405180910390fd5b5f60646001806002015f9054906101000a900460ff16600481111561026c5761026b610af3565b5b6102769190610cf8565b6102809190610d2b565b606460018060020160019054906101000a900460ff1660038111156102a8576102a7610af3565b5b6102b29190610cf8565b6102bc9190610d2b565b6064600a60018001546102cf9190610d99565b6102d99190610d2b565b6102e39190610cf8565b6102ed9190610cf8565b9050600460405180608001604052808381526020015f151581526020015f81526020015f815250908060018154018082558091505060019003905f5260205f2090600402015f909190919091505f820151815f01556020820151816001015f6101000a81548160ff021916908315150217905550604082015181600201556060820151816003015550507f2e46c8fcad6b9583734b0c29e587f0d9e237d4df447a8b7d9ff90000b27cbb7981336040516103a8929190610dc9565b60405180910390a150565b5f805f015f9054906101000a900473ffffffffffffffffffffffffffffffffffffffff16905081565b60015f015f9054906101000a900473ffffffffffffffffffffffffffffffffffffffff1673ffffffffffffffffffffffffffffffffffffffff163373ffffffffffffffffffffffffffffffffffffffff161461046d576040517f08c379a000000000000000000000000000000000000000000000000000000000815260040161046490610e60565b60405180910390fd5b5f600480549050116104b4576040517f08c379a00000000000000000000000000000000000000000000000000000000081526004016104ab90610eee565b60405180910390fd5b5f7fffffffffffffffffffffffffffffffffffffffffffffffffffffffffffffffff90505f5f90505b60048054905081101561053657600115156004828154811061050257610501610f0c565b5b905f5260205f2090600402016001015f9054906101000a900460ff16151503610529578091505b80806001019150506104dd565b507fffffffffffffffffffffffffffffffffffffffffffffffffffffffffffffffff8103610599576040517f08c379a000000000000000000000000000000000000000000000000000000000815260040161059090610f83565b60405180910390fd5b6105a38183610657565b7fceeefcb457fa652a5d548c9be1ff7e23ec8ff5fd7b4eb405ceec3cc31fd3677c600482815481106105d8576105d7610f0c565b5b905f5260205f2090600402015f0154336040516105f6929190610dc9565b60405180910390a15050565b6001805f015f9054906101000a900473ffffffffffffffffffffffffffffffffffffffff1690806001015490806002015f9054906101000a900460ff16908060020160019054906101000a900460ff16905084565b6064600182600281111561066e5761066d610af3565b5b6106789190610cf8565b6106829190610d2b565b6004838154811061069657610695610f0c565b5b905f5260205f209060040201600301546106b09190610cf8565b600483815481106106c4576106c3610f0c565b5b905f5260205f209060040201600301819055506001600483815481106106ed576106ec610f0c565b5b905f5260205f209060040201600201546107079190610cf8565b6004838154811061071b5761071a610f0c565b5b905f5260205f209060040201600201819055507fceeefcb457fa652a5d548c9be1ff7e23ec8ff5fd7b4eb405ceec3cc31fd3677c6004838154811061076357610762610f0c565b5b905f5260205f209060040201600301545f5f015f9054906101000a900473ffffffffffffffffffffffffffffffffffffffff166040516107a4929190610dc9565b60405180910390a15050565b60015f015f9054906101000a900473ffffffffffffffffffffffffffffffffffffffff1673ffffffffffffffffffffffffffffffffffffffff163373ffffffffffffffffffffffffffffffffffffffff1614610841576040517f08c379a000000000000000000000000000000000000000000000000000000000815260040161083890610feb565b60405180910390fd5b5f60048054905011610888576040517f08c379a000000000000000000000000000000000000000000000000000000000815260040161087f90610eee565b60405180910390fd5b5f5f90505b60048054905081101561097c575f1515600482815481106108b1576108b0610f0c565b5b905f5260205f2090600402016001015f9054906101000a900460ff1615150361096f576001600482815481106108ea576108e9610f0c565b5b905f5260205f2090600402016001015f6101000a81548160ff0219169083151502179055507fceeefcb457fa652a5d548c9be1ff7e23ec8ff5fd7b4eb405ceec3cc31fd3677c6004828154811061094457610943610f0c565b5b905f5260205f2090600402015f015433604051610962929190610dc9565b60405180910390a161097c565b808060010191505061088d565b50565b5f5ffd5b5f819050919050565b61099581610983565b811461099f575f5ffd5b50565b5f813590506109b08161098c565b92915050565b5f602082840312156109cb576109ca61097f565b5b5f6109d8848285016109a2565b91505092915050565b6109ea81610983565b82525050565b5f8115159050919050565b610a04816109f0565b82525050565b5f608082019050610a1d5f8301876109e1565b610a2a60208301866109fb565b610a3760408301856109e1565b610a4460608301846109e1565b95945050505050565b5f73ffffffffffffffffffffffffffffffffffffffff82169050919050565b5f610a7682610a4d565b9050919050565b610a8681610a6c565b82525050565b5f602082019050610a9f5f830184610a7d565b92915050565b60038110610ab1575f5ffd5b50565b5f81359050610ac281610aa5565b92915050565b5f60208284031215610add57610adc61097f565b5b5f610aea84828501610ab4565b91505092915050565b7f4e487b71000000000000000000000000000000000000000000000000000000005f52602160045260245ffd5b60058110610b3157610b30610af3565b5b50565b5f819050610b4182610b20565b919050565b5f610b5082610b34565b9050919050565b610b6081610b46565b82525050565b60048110610b7757610b76610af3565b5b50565b5f819050610b8782610b66565b919050565b5f610b9682610b7a565b9050919050565b610ba681610b8c565b82525050565b5f608082019050610bbf5f830187610a7d565b610bcc60208301866109e1565b610bd96040830185610b57565b610be66060830184610b9d565b95945050505050565b5f5f60408385031215610c0557610c0461097f565b5b5f610c12858286016109a2565b9250506020610c2385828601610ab4565b9150509250929050565b5f82825260208201905092915050565b7f536b61696369756f74692073756d612067616c692074696b206472617564656a5f8201527f6173000000000000000000000000000000000000000000000000000000000000602082015250565b5f610c97602283610c2d565b9150610ca282610c3d565b604082019050919050565b5f6020820190508181035f830152610cc481610c8b565b9050919050565b7f4e487b71000000000000000000000000000000000000000000000000000000005f52601160045260245ffd5b5f610d0282610983565b9150610d0d83610983565b9250828201905080821115610d2557610d24610ccb565b5b92915050565b5f610d3582610983565b9150610d4083610983565b9250828202610d4e81610983565b91508282048414831517610d6557610d64610ccb565b5b5092915050565b7f4e487b71000000000000000000000000000000000000000000000000000000005f52601260045260245ffd5b5f610da382610983565b9150610dae83610983565b925082610dbe57610dbd610d6c565b5b828204905092915050565b5f604082019050610ddc5f8301856109e1565b610de96020830184610a7d565b9392505050565b7f557a72656769737472756f7469206976796b692067616c692074696b206b6c695f8201527f656e746173000000000000000000000000000000000000000000000000000000602082015250565b5f610e4a602583610c2d565b9150610e5582610df0565b604082019050919050565b5f6020820190508181035f830152610e7781610e3e565b9050919050565b7f4472617564656a6173206e6570617465696b65206e6569207669656e6f7320735f8201527f756d6f7300000000000000000000000000000000000000000000000000000000602082015250565b5f610ed8602483610c2d565b9150610ee382610e7e565b604082019050919050565b5f6020820190508181035f830152610f0581610ecc565b9050919050565b7f4e487b71000000000000000000000000000000000000000000000000000000005f52603260045260245ffd5b7f6e65726120757a6d6f6b65746f206d656e6573696f00000000000000000000005f82015250565b5f610f6d601583610c2d565b9150610f7882610f39565b602082019050919050565b5f6020820190508181035f830152610f9a81610f61565b9050919050565b7f53756d6f6b6574692067616c692074696b206b6c69656e7461730000000000005f82015250565b5f610fd5601a83610c2d565b9150610fe082610fa1565b602082019050919050565b5f6020820190508181035f83015261100281610fc9565b905091905056fea2646970667358221220c333f52ffa8ed49ac4b2a6ded699ef091f72659239ca281009f704d7b516fb0a64736f6c634300081e0033",
  "immutableReferences": {},
  "source": "// SPDX-License-Identifier: MIT\r\n\r\npragma solidity >=0.7.0 <0.9.0;\r\n\r\n/** \r\n * @title Draudimas\r\n * @dev Kliento apdraudimo implementacija\r\n */\r\ncontract Draudimas {\r\n\r\n    event gauta(uint suma, address draudejas);\r\n    event sumoketa(uint suma, address moketojas);\r\n    event uzregistruota(ivykioTipas ivykis, address klientas);\r\n\r\n    struct Draudejas {\r\n        address draudejoAddr;\r\n    }\r\n\r\n    struct Klientas {\r\n        address klientoAddr;\r\n        uint amzius;\r\n        sveikatosTipas sveikatosBukle;\r\n        //vairavimo istorija\r\n        profesijosTipas profesija;\r\n    }\r\n\r\n    struct Menesis {\r\n        uint suma;\r\n        bool sumoketa;\r\n        uint ivykiuSkaicius;\r\n        uint ismoketaSuma;\r\n    }\r\n\r\n    enum sveikatosTipas {\r\n        Tobula,\r\n        Gera,\r\n        Vidutine,\r\n        Prasta,\r\n        Bloga\r\n    }\r\n\r\n    enum profesijosTipas {\r\n        Studentas,\r\n        Protinis,\r\n        Fizinis,\r\n        Bedarbis\r\n    }\r\n\r\n    enum ivykioTipas {\r\n        Smulkus,\r\n        Vidutinis,\r\n        Stiprus\r\n    }\r\n\r\n   Draudejas public draudejas;\r\n   Klientas public klientas;\r\n   Menesis[] public menesiai;\r\n\r\n    /** \r\n     * @dev sudaroma sutartis tarp draudejo ir kliento\r\n     * @param _klientoAddr klientas, su kuriuo sudaroma sutartis\r\n     * @param _amzius kliento amzius\r\n     * @param _sveikata kliento sveikata\r\n     * @param _profesija kliento profesija\r\n     */\r\n    constructor(address _klientoAddr, uint _amzius, sveikatosTipas _sveikata, profesijosTipas _profesija) {\r\n            require(_amzius >= 18, \"Klientas turi buti pilnametis\");\r\n            require(msg.sender != _klientoAddr, \"Draudejas negali buti klientas\");\r\n\r\n            draudejas = Draudejas({draudejoAddr: msg.sender});\r\n            klientas = Klientas({klientoAddr: _klientoAddr, amzius: _amzius, sveikatosBukle: _sveikata, profesija: _profesija});\r\n            skaiciuotiSuma();\r\n    }\r\n\r\n    function skaiciuotiSuma() public {\r\n            require(msg.sender == draudejas.draudejoAddr, \"Skaiciuoti suma gali tik draudejas\");\r\n            uint reikiamaSuma = (klientas.amzius / 10) * 100 + (uint(klientas.profesija) + 1) * 100 + (uint(klientas.sveikatosBukle) + 1) * 100;\r\n            menesiai.push(Menesis({suma: reikiamaSuma, sumoketa: false, ivykiuSkaicius: 0, ismoketaSuma: 0}));\r\n            emit gauta(reikiamaSuma, msg.sender);\r\n    }\r\n\r\n    function sumoketi() public payable {\r\n        require(msg.sender == klientas.klientoAddr, \"Sumoketi gali tik klientas\");\r\n        require(menesiai.length > 0, \"Draudejas nepateike nei vienos sumos\");\r\n        for (uint i=0; i < menesiai.length; i++) {\r\n            if (menesiai[i].sumoketa == false) {\r\n                menesiai[i].sumoketa = true;\r\n                emit sumoketa(menesiai[i].suma, msg.sender);\r\n                break;\r\n            }\r\n        }\r\n    }\r\n\r\n    function uzregistruotiIvyki(ivykioTipas ivykioLygis) public {\r\n        require(msg.sender == klientas.klientoAddr, \"Uzregistruoti ivyki gali tik klientas\");\r\n        require(menesiai.length > 0, \"Draudejas nepateike nei vienos sumos\");\r\n        int n = -1;\r\n        for (uint i=0; i < menesiai.length; i++) {\r\n            if (menesiai[i].sumoketa == true) {\r\n                n = int(i);\r\n            }\r\n        }\r\n        require(n != -1, \"nera uzmoketo menesio\");\r\n        ismoka(uint(n), ivykioLygis);\r\n        emit sumoketa(menesiai[uint(n)].suma, msg.sender);\r\n    }\r\n\r\n    function ismoka(uint n, ivykioTipas ivykioLygis) public payable {\r\n        menesiai[n].ismoketaSuma = menesiai[n].ismoketaSuma + (uint(ivykioLygis) + 1) * 100;\r\n        menesiai[n].ivykiuSkaicius = menesiai[n].ivykiuSkaicius + 1;\r\n        emit sumoketa(menesiai[n].ismoketaSuma, draudejas.draudejoAddr);\r\n    }\r\n}",
  "sourcePath": "C:\\Users\\gurkl\\OneDrive\\Stalinis kompiuteris\\smart_contract\\contracts\\Draudimas.sol",
  "compiler": {
    "name": "solc",
    "version": "0.8.30+commit.73712a01.Emscripten.clang"
  },
  "schemaVersion": "3.4.16",
  "updatedAt": "2025-12-10T09:53:05.732Z",
  "networkType": "ethereum",
  "devdoc": {
    "details": "Kliento apdraudimo implementacija",
    "kind": "dev",
    "methods": {
      "constructor": {
        "details": "sudaroma sutartis tarp draudejo ir kliento",
        "params": {
          "_amzius": "kliento amzius",
          "_klientoAddr": "klientas, su kuriuo sudaroma sutartis",
          "_profesija": "kliento profesija",
          "_sveikata": "kliento sveikata"
        }
      }
    },
    "title": "Draudimas",
    "version": 1
  },
  "userdoc": {
    "kind": "user",
    "methods": {},
    "version": 1
  }
}