{
  "contractName": "Draudimas",
  "abi": [
    {
      "inputs": [
        {
          "internalType": "address",
          "name": "_klientoAddr",
          "type": "address"
        },
        {
          "internalType": "uint256",
          "name": "_amzius",
          "type": "uint256"
        },
        {
          "internalType": "enum Draudimas.sveikatosTipas",
          "name": "_sveikata",
          "type": "uint8"
        },
        {
          "internalType": "enum Draudimas.profesijosTipas",
          "name": "_profesija",
          "type": "uint8"
        }
      ],
      "stateMutability": "nonpayable",
      "type": "constructor"
    },
    {
      "anonymous": false,
      "inputs": [
        {
          "indexed": false,
          "internalType": "uint256",
          "name": "suma",
          "type": "uint256"
        },
        {
          "indexed": false,
          "internalType": "address",
          "name": "draudejas",
          "type": "address"
        }
      ],
      "name": "gauta",
      "type": "event"
    },
    {
      "anonymous": false,
      "inputs": [
        {
          "indexed": false,
          "internalType": "uint256",
          "name": "suma",
          "type": "uint256"
        },
        {
          "indexed": false,
          "internalType": "address",
          "name": "moketojas",
          "type": "address"
        }
      ],
      "name": "sumoketa",
      "type": "event"
    },
    {
      "anonymous": false,
      "inputs": [
        {
          "indexed": false,
          "internalType": "enum Draudimas.ivykioTipas",
          "name": "ivykis",
          "type": "uint8"
        },
        {
          "indexed": false,
          "internalType": "address",
          "name": "klientas",
          "type": "address"
        }
      ],
      "name": "uzregistruota",
      "type": "event"
    },
    {
      "inputs": [],
      "name": "amount1",
      "outputs": [
        {
          "internalType": "uint256",
          "name": "",
          "type": "uint256"
        }
      ],
      "stateMutability": "view",
      "type": "function",
      "constant": true
    },
    {
      "inputs": [],
      "name": "amount2",
      "outputs": [
        {
          "internalType": "uint256",
          "name": "",
          "type": "uint256"
        }
      ],
      "stateMutability": "view",
      "type": "function",
      "constant": true
    },
    {
      "inputs": [],
      "name": "draudejas",
      "outputs": [
        {
          "internalType": "address payable",
          "name": "draudejoAddr",
          "type": "address"
        }
      ],
      "stateMutability": "view",
      "type": "function",
      "constant": true
    },
    {
      "inputs": [],
      "name": "klientas",
      "outputs": [
        {
          "internalType": "address payable",
          "name": "klientoAddr",
          "type": "address"
        },
        {
          "internalType": "uint256",
          "name": "amzius",
          "type": "uint256"
        },
        {
          "internalType": "enum Draudimas.sveikatosTipas",
          "name": "sveikatosBukle",
          "type": "uint8"
        },
        {
          "internalType": "enum Draudimas.profesijosTipas",
          "name": "profesija",
          "type": "uint8"
        }
      ],
      "stateMutability": "view",
      "type": "function",
      "constant": true
    },
    {
      "inputs": [
        {
          "internalType": "uint256",
          "name": "",
          "type": "uint256"
        }
      ],
      "name": "menesiai",
      "outputs": [
        {
          "internalType": "uint256",
          "name": "suma",
          "type": "uint256"
        },
        {
          "internalType": "bool",
          "name": "sumokejo",
          "type": "bool"
        },
        {
          "internalType": "uint256",
          "name": "ivykiuSkaicius",
          "type": "uint256"
        },
        {
          "internalType": "uint256",
          "name": "reikiamaSuma",
          "type": "uint256"
        },
        {
          "internalType": "uint256",
          "name": "ismoketaSuma",
          "type": "uint256"
        }
      ],
      "stateMutability": "view",
      "type": "function",
      "constant": true
    },
    {
      "inputs": [],
      "name": "skaiciuotiSuma",
      "outputs": [],
      "stateMutability": "nonpayable",
      "type": "function"
    },
    {
      "inputs": [],
      "name": "sumoketi",
      "outputs": [],
      "stateMutability": "payable",
      "type": "function",
      "payable": true
    },
    {
      "inputs": [
        {
          "internalType": "enum Draudimas.ivykioTipas",
          "name": "ivykioLygis",
          "type": "uint8"
        }
      ],
      "name": "uzregistruotiIvyki",
      "outputs": [],
      "stateMutability": "nonpayable",
      "type": "function"
    },
    {
      "inputs": [
        {
          "internalType": "uint256",
          "name": "n",
          "type": "uint256"
        }
      ],
      "name": "ismoka",
      "outputs": [],
      "stateMutability": "payable",
      "type": "function",
      "payable": true
    },
    {
      "inputs": [],
      "name": "pervestiPinigus",
      "outputs": [],
      "stateMutability": "payable",
      "type": "function",
      "payable": true
    },
    {
      "inputs": [],
      "name": "getKlientas",
      "outputs": [
        {
          "internalType": "address",
          "name": "klientoAddr",
          "type": "address"
        },
        {
          "internalType": "uint256",
          "name": "amzius",
          "type": "uint256"
        },
        {
          "internalType": "enum Draudimas.sveikatosTipas",
          "name": "sveikata",
          "type": "uint8"
        },
        {
          "internalType": "enum Draudimas.profesijosTipas",
          "name": "profesija",
          "type": "uint8"
        }
      ],
      "stateMutability": "view",
      "type": "function",
      "constant": true
    },
    {
      "inputs": [],
      "name": "getDraudejas",
      "outputs": [
        {
          "internalType": "address",
          "name": "draudejoAddr",
          "type": "address"
        }
      ],
      "stateMutability": "view",
      "type": "function",
      "constant": true
    },
    {
      "inputs": [
        {
          "internalType": "uint256",
          "name": "i",
          "type": "uint256"
        }
      ],
      "name": "gautiMenesi",
      "outputs": [
        {
          "internalType": "uint256",
          "name": "suma",
          "type": "uint256"
        },
        {
          "internalType": "bool",
          "name": "sumokejo",
          "type": "bool"
        },
        {
          "internalType": "uint256",
          "name": "ivykiuSkaicius",
          "type": "uint256"
        },
        {
          "internalType": "uint256",
          "name": "reikiamaSuma",
          "type": "uint256"
        },
        {
          "internalType": "uint256",
          "name": "ismoketaSuma",
          "type": "uint256"
        }
      ],
      "stateMutability": "view",
      "type": "function",
      "constant": true
    },
    {
      "inputs": [],
      "name": "gautiBalansa",
      "outputs": [
        {
          "internalType": "uint256",
          "name": "",
          "type": "uint256"
        }
      ],
      "stateMutability": "view",
      "type": "function",
      "constant": true
    }
  ],
  "bytecode": "0x60806040525f6005555f600655348015610017575f5ffd5b5060405161259138038061259183398181016040528101906100399190610577565b601283101561007d576040517f08c379a000000000000000000000000000000000000000000000000000000000815260040161007490610635565b60405180910390fd5b8373ffffffffffffffffffffffffffffffffffffffff163373ffffffffffffffffffffffffffffffffffffffff16036100eb576040517f08c379a00000000000000000000000000000000000000000000000000000000081526004016100e29061069d565b60405180910390fd5b60405180602001604052803373ffffffffffffffffffffffffffffffffffffffff168152505f5f820151815f015f6101000a81548173ffffffffffffffffffffffffffffffffffffffff021916908373ffffffffffffffffffffffffffffffffffffffff16021790555090505060405180608001604052808573ffffffffffffffffffffffffffffffffffffffff168152602001848152602001836004811115610198576101976106bb565b5b81526020018260038111156101b0576101af6106bb565b5b81525060015f820151815f015f6101000a81548173ffffffffffffffffffffffffffffffffffffffff021916908373ffffffffffffffffffffffffffffffffffffffff160217905550602082015181600101556040820151816002015f6101000a81548160ff0219169083600481111561022d5761022c6106bb565b5b021790555060608201518160020160016101000a81548160ff0219169083600381111561025d5761025c6106bb565b5b021790555090505061027361027c60201b60201c565b505050506108b9565b5f5f015f9054906101000a900473ffffffffffffffffffffffffffffffffffffffff1673ffffffffffffffffffffffffffffffffffffffff163373ffffffffffffffffffffffffffffffffffffffff161461030c576040517f08c379a000000000000000000000000000000000000000000000000000000000815260040161030390610758565b60405180910390fd5b5f67016345785d8a00006001806002015f9054906101000a900460ff16600481111561033b5761033a6106bb565b5b61034591906107a3565b61034f91906107d6565b67016345785d8a000060018060020160019054906101000a900460ff16600381111561037e5761037d6106bb565b5b61038891906107a3565b61039291906107d6565b67016345785d8a0000600a60018001546103ac9190610844565b6103b691906107d6565b6103c091906107a3565b6103ca91906107a3565b905060046040518060a001604052808381526020015f151581526020015f81526020015f81526020015f815250908060018154018082558091505060019003905f5260205f2090600502015f909190919091505f820151815f01556020820151816001015f6101000a81548160ff02191690831515021790555060408201518160020155606082015181600301556080820151816004015550507f2e46c8fcad6b9583734b0c29e587f0d9e237d4df447a8b7d9ff90000b27cbb798133604051610495929190610892565b60405180910390a150565b5f5ffd5b5f73ffffffffffffffffffffffffffffffffffffffff82169050919050565b5f6104cd826104a4565b9050919050565b6104dd816104c3565b81146104e7575f5ffd5b50565b5f815190506104f8816104d4565b92915050565b5f819050919050565b610510816104fe565b811461051a575f5ffd5b50565b5f8151905061052b81610507565b92915050565b6005811061053d575f5ffd5b50565b5f8151905061054e81610531565b92915050565b60048110610560575f5ffd5b50565b5f8151905061057181610554565b92915050565b5f5f5f5f6080858703121561058f5761058e6104a0565b5b5f61059c878288016104ea565b94505060206105ad8782880161051d565b93505060406105be87828801610540565b92505060606105cf87828801610563565b91505092959194509250565b5f82825260208201905092915050565b7f4b6c69656e746173207475726920627574692070696c6e616d657469730000005f82015250565b5f61061f601d836105db565b915061062a826105eb565b602082019050919050565b5f6020820190508181035f83015261064c81610613565b9050919050565b7f4472617564656a6173206e6567616c692062757469206b6c69656e74617300005f82015250565b5f610687601e836105db565b915061069282610653565b602082019050919050565b5f6020820190508181035f8301526106b48161067b565b9050919050565b7f4e487b71000000000000000000000000000000000000000000000000000000005f52602160045260245ffd5b7f536b61696369756f74692073756d612067616c692074696b206472617564656a5f8201527f6173000000000000000000000000000000000000000000000000000000000000602082015250565b5f6107426022836105db565b915061074d826106e8565b604082019050919050565b5f6020820190508181035f83015261076f81610736565b9050919050565b7f4e487b71000000000000000000000000000000000000000000000000000000005f52601160045260245ffd5b5f6107ad826104fe565b91506107b8836104fe565b92508282019050808211156107d0576107cf610776565b5b92915050565b5f6107e0826104fe565b91506107eb836104fe565b92508282026107f9816104fe565b915082820484148315176108105761080f610776565b5b5092915050565b7f4e487b71000000000000000000000000000000000000000000000000000000005f52601260045260245ffd5b5f61084e826104fe565b9150610859836104fe565b92508261086957610868610817565b5b828204905092915050565b61087d816104fe565b82525050565b61088c816104c3565b82525050565b5f6040820190506108a55f830185610874565b6108b26020830184610883565b9392505050565b611ccb806108c65f395ff3fe6080604052600436106100dc575f3560e01c806397d4b74c1161007e578063c5d53a0711610058578063c5d53a071461028f578063cff2a075146102bc578063d33ad50e146102c6578063f400fde4146102d0576100dc565b806397d4b74c146101fd578063aa0484ef1461023d578063bcc0e8e314610267576100dc565b806352058ea2116100ba57806352058ea2146101535780636ab007881461017d5780638484c112146101bd57806395356e75146101e7576100dc565b8063057bfcc7146100e05780632f5bc4291461010a5780633bd4cac714610137575b5f5ffd5b3480156100eb575f5ffd5b506100f46102fa565b6040516101019190611137565b60405180910390f35b348015610115575f5ffd5b5061011e610300565b60405161012e9493929190611248565b60405180910390f35b610151600480360381019061014c91906112b9565b610363565b005b34801561015e575f5ffd5b5061016761057d565b6040516101749190611137565b60405180910390f35b348015610188575f5ffd5b506101a3600480360381019061019e91906112b9565b610584565b6040516101b49594939291906112fe565b60405180910390f35b3480156101c8575f5ffd5b506101d16105d1565b6040516101de919061134f565b60405180910390f35b3480156101f2575f5ffd5b506101fb6105ff565b005b348015610208575f5ffd5b50610223600480360381019061021e91906112b9565b610823565b6040516102349594939291906112fe565b60405180910390f35b348015610248575f5ffd5b50610251610883565b60405161025e9190611388565b60405180910390f35b348015610272575f5ffd5b5061028d600480360381019061028891906113c4565b6108ac565b005b34801561029a575f5ffd5b506102a3610b0f565b6040516102b394939291906113ef565b60405180910390f35b6102c4610b64565b005b6102ce610ee6565b005b3480156102db575f5ffd5b506102e4611119565b6040516102f19190611137565b60405180910390f35b60065481565b5f5f5f5f5f60019050805f015f9054906101000a900473ffffffffffffffffffffffffffffffffffffffff168160010154826002015f9054906101000a900460ff168360020160019054906101000a900460ff1694509450945094505090919293565b5f5f015f9054906101000a900473ffffffffffffffffffffffffffffffffffffffff1673ffffffffffffffffffffffffffffffffffffffff163373ffffffffffffffffffffffffffffffffffffffff16146103f3576040517f08c379a00000000000000000000000000000000000000000000000000000000081526004016103ea9061148c565b60405180910390fd5b80600480549050101561043b576040517f08c379a00000000000000000000000000000000000000000000000000000000081526004016104329061151a565b60405180910390fd5b6004818154811061044f5761044e611538565b5b905f5260205f2090600502016003015434146104a0576040517f08c379a0000000000000000000000000000000000000000000000000000000008152600401610497906115af565b60405180910390fd5b600481815481106104b4576104b3611538565b5b905f5260205f20906005020160030154600482815481106104d8576104d7611538565b5b905f5260205f2090600502016004015f8282546104f591906115fa565b925050819055507fceeefcb457fa652a5d548c9be1ff7e23ec8ff5fd7b4eb405ceec3cc31fd3677c6004828154811061053157610530611538565b5b905f5260205f209060050201600401545f5f015f9054906101000a900473ffffffffffffffffffffffffffffffffffffffff16604051610572929190611688565b60405180910390a150565b5f47905090565b60048181548110610593575f80fd5b905f5260205f2090600502015f91509050805f015490806001015f9054906101000a900460ff16908060020154908060030154908060040154905085565b5f5f5f9050805f015f9054906101000a900473ffffffffffffffffffffffffffffffffffffffff1691505090565b5f5f015f9054906101000a900473ffffffffffffffffffffffffffffffffffffffff1673ffffffffffffffffffffffffffffffffffffffff163373ffffffffffffffffffffffffffffffffffffffff161461068f576040517f08c379a00000000000000000000000000000000000000000000000000000000081526004016106869061171f565b60405180910390fd5b5f67016345785d8a00006001806002015f9054906101000a900460ff1660048111156106be576106bd61118f565b5b6106c891906115fa565b6106d2919061173d565b67016345785d8a000060018060020160019054906101000a900460ff1660038111156107015761070061118f565b5b61070b91906115fa565b610715919061173d565b67016345785d8a0000600a600180015461072f91906117ab565b610739919061173d565b61074391906115fa565b61074d91906115fa565b905060046040518060a001604052808381526020015f151581526020015f81526020015f81526020015f815250908060018154018082558091505060019003905f5260205f2090600502015f909190919091505f820151815f01556020820151816001015f6101000a81548160ff02191690831515021790555060408201518160020155606082015181600301556080820151816004015550507f2e46c8fcad6b9583734b0c29e587f0d9e237d4df447a8b7d9ff90000b27cbb7981336040516108189291906117db565b60405180910390a150565b5f5f5f5f5f5f6004878154811061083d5761083c611538565b5b905f5260205f2090600502019050805f0154816001015f9054906101000a900460ff16826002015483600301548460040154955095509550955095505091939590929450565b5f805f015f9054906101000a900473ffffffffffffffffffffffffffffffffffffffff16905081565b60015f015f9054906101000a900473ffffffffffffffffffffffffffffffffffffffff1673ffffffffffffffffffffffffffffffffffffffff163373ffffffffffffffffffffffffffffffffffffffff161461093d576040517f08c379a000000000000000000000000000000000000000000000000000000000815260040161093490611872565b60405180910390fd5b5f60048054905011610984576040517f08c379a000000000000000000000000000000000000000000000000000000000815260040161097b90611900565b60405180910390fd5b5f7fffffffffffffffffffffffffffffffffffffffffffffffffffffffffffffffff90505f5f90505b600480549050811015610a065760011515600482815481106109d2576109d1611538565b5b905f5260205f2090600502016001015f9054906101000a900460ff161515036109f9578091505b80806001019150506109ad565b507fffffffffffffffffffffffffffffffffffffffffffffffffffffffffffffffff8103610a69576040517f08c379a0000000000000000000000000000000000000000000000000000000008152600401610a6090611968565b60405180910390fd5b60048181548110610a7d57610a7c611538565b5b905f5260205f2090600502016002015f815480929190610a9c90611986565b9190505550670de0b6b3a76400006001836002811115610abf57610abe61118f565b5b610ac991906115fa565b610ad3919061173d565b60048281548110610ae757610ae6611538565b5b905f5260205f2090600502016003015f828254610b0491906115fa565b925050819055505050565b6001805f015f9054906101000a900473ffffffffffffffffffffffffffffffffffffffff1690806001015490806002015f9054906101000a900460ff16908060020160019054906101000a900460ff16905084565b5f5f015f9054906101000a900473ffffffffffffffffffffffffffffffffffffffff1673ffffffffffffffffffffffffffffffffffffffff163373ffffffffffffffffffffffffffffffffffffffff1614610bf4576040517f08c379a0000000000000000000000000000000000000000000000000000000008152600401610beb90611a3d565b60405180910390fd5b6001151560046001600480549050610c0c9190611a5b565b81548110610c1d57610c1c611538565b5b905f5260205f2090600502016001015f9054906101000a900460ff16151514610c7b576040517f08c379a0000000000000000000000000000000000000000000000000000000008152600401610c7290611afe565b60405180910390fd5b5f60048054905011610cc2576040517f08c379a0000000000000000000000000000000000000000000000000000000008152600401610cb990611900565b60405180910390fd5b5f60048054905060045f81548110610cdd57610cdc611538565b5b905f5260205f2090600502015f0154610cf6919061173d565b9050476005819055508060055411610d43576040517f08c379a0000000000000000000000000000000000000000000000000000000008152600401610d3a90611b66565b60405180910390fd5b5f5f5f015f9054906101000a900473ffffffffffffffffffffffffffffffffffffffff1673ffffffffffffffffffffffffffffffffffffffff1682604051610d8a90611bb1565b5f6040518083038185875af1925050503d805f8114610dc4576040519150601f19603f3d011682016040523d82523d5f602084013e610dc9565b606091505b5050905080610e0d576040517f08c379a0000000000000000000000000000000000000000000000000000000008152600401610e0490611c0f565b60405180910390fd5b4760068190555060015f015f9054906101000a900473ffffffffffffffffffffffffffffffffffffffff1673ffffffffffffffffffffffffffffffffffffffff16600654604051610e5d90611bb1565b5f6040518083038185875af1925050503d805f8114610e97576040519150601f19603f3d011682016040523d82523d5f602084013e610e9c565b606091505b50508091505080610ee2576040517f08c379a0000000000000000000000000000000000000000000000000000000008152600401610ed990611c0f565b60405180910390fd5b5050565b60015f015f9054906101000a900473ffffffffffffffffffffffffffffffffffffffff1673ffffffffffffffffffffffffffffffffffffffff163373ffffffffffffffffffffffffffffffffffffffff1614610f77576040517f08c379a0000000000000000000000000000000000000000000000000000000008152600401610f6e90611c77565b60405180910390fd5b5f60048054905011610fbe576040517f08c379a0000000000000000000000000000000000000000000000000000000008152600401610fb590611900565b60405180910390fd5b5f5f90505b600480549050811015611116575f151560048281548110610fe757610fe6611538565b5b905f5260205f2090600502016001015f9054906101000a900460ff16151503611109576004818154811061101e5761101d611538565b5b905f5260205f2090600502015f0154341461106e576040517f08c379a0000000000000000000000000000000000000000000000000000000008152600401611065906115af565b60405180910390fd5b60016004828154811061108457611083611538565b5b905f5260205f2090600502016001015f6101000a81548160ff0219169083151502179055507fceeefcb457fa652a5d548c9be1ff7e23ec8ff5fd7b4eb405ceec3cc31fd3677c600482815481106110de576110dd611538565b5b905f5260205f2090600502015f0154336040516110fc9291906117db565b60405180910390a1611116565b8080600101915050610fc3565b50565b60055481565b5f819050919050565b6111318161111f565b82525050565b5f60208201905061114a5f830184611128565b92915050565b5f73ffffffffffffffffffffffffffffffffffffffff82169050919050565b5f61117982611150565b9050919050565b6111898161116f565b82525050565b7f4e487b71000000000000000000000000000000000000000000000000000000005f52602160045260245ffd5b600581106111cd576111cc61118f565b5b50565b5f8190506111dd826111bc565b919050565b5f6111ec826111d0565b9050919050565b6111fc816111e2565b82525050565b600481106112135761121261118f565b5b50565b5f81905061122382611202565b919050565b5f61123282611216565b9050919050565b61124281611228565b82525050565b5f60808201905061125b5f830187611180565b6112686020830186611128565b61127560408301856111f3565b6112826060830184611239565b95945050505050565b5f5ffd5b6112988161111f565b81146112a2575f5ffd5b50565b5f813590506112b38161128f565b92915050565b5f602082840312156112ce576112cd61128b565b5b5f6112db848285016112a5565b91505092915050565b5f8115159050919050565b6112f8816112e4565b82525050565b5f60a0820190506113115f830188611128565b61131e60208301876112ef565b61132b6040830186611128565b6113386060830185611128565b6113456080830184611128565b9695505050505050565b5f6020820190506113625f830184611180565b92915050565b5f61137282611150565b9050919050565b61138281611368565b82525050565b5f60208201905061139b5f830184611379565b92915050565b600381106113ad575f5ffd5b50565b5f813590506113be816113a1565b92915050565b5f602082840312156113d9576113d861128b565b5b5f6113e6848285016113b0565b91505092915050565b5f6080820190506114025f830187611379565b61140f6020830186611128565b61141c60408301856111f3565b6114296060830184611239565b95945050505050565b5f82825260208201905092915050565b7f49736d6f6b6574692067616c692074696b206472617564656a617300000000005f82015250565b5f611476601b83611432565b915061148182611442565b602082019050919050565b5f6020820190508181035f8301526114a38161146a565b9050919050565b7f4e6572612070617465696b74612073696f206d656e6573696f206d6f6b656a695f8201527f6d6f000000000000000000000000000000000000000000000000000000000000602082015250565b5f611504602283611432565b915061150f826114aa565b604082019050919050565b5f6020820190508181035f830152611531816114f8565b9050919050565b7f4e487b71000000000000000000000000000000000000000000000000000000005f52603260045260245ffd5b7f4d6f6b656a696d6f2073756d61206e6574696e6b616d610000000000000000005f82015250565b5f611599601783611432565b91506115a482611565565b602082019050919050565b5f6020820190508181035f8301526115c68161158d565b9050919050565b7f4e487b71000000000000000000000000000000000000000000000000000000005f52601160045260245ffd5b5f6116048261111f565b915061160f8361111f565b9250828201905080821115611627576116266115cd565b5b92915050565b5f819050919050565b5f61165061164b61164684611150565b61162d565b611150565b9050919050565b5f61166182611636565b9050919050565b5f61167282611657565b9050919050565b61168281611668565b82525050565b5f60408201905061169b5f830185611128565b6116a86020830184611679565b9392505050565b7f536b61696369756f74692073756d612067616c692074696b206472617564656a5f8201527f6173000000000000000000000000000000000000000000000000000000000000602082015250565b5f611709602283611432565b9150611714826116af565b604082019050919050565b5f6020820190508181035f830152611736816116fd565b9050919050565b5f6117478261111f565b91506117528361111f565b92508282026117608161111f565b91508282048414831517611777576117766115cd565b5b5092915050565b7f4e487b71000000000000000000000000000000000000000000000000000000005f52601260045260245ffd5b5f6117b58261111f565b91506117c08361111f565b9250826117d0576117cf61177e565b5b828204905092915050565b5f6040820190506117ee5f830185611128565b6117fb6020830184611180565b9392505050565b7f557a72656769737472756f7469206976796b692067616c692074696b206b6c695f8201527f656e746173000000000000000000000000000000000000000000000000000000602082015250565b5f61185c602583611432565b915061186782611802565b604082019050919050565b5f6020820190508181035f83015261188981611850565b9050919050565b7f4472617564656a6173206e6570617465696b65206e6569207669656e6f7320735f8201527f756d6f7300000000000000000000000000000000000000000000000000000000602082015250565b5f6118ea602483611432565b91506118f582611890565b604082019050919050565b5f6020820190508181035f830152611917816118de565b9050919050565b7f6e65726120757a6d6f6b65746f206d656e6573696f00000000000000000000005f82015250565b5f611952601583611432565b915061195d8261191e565b602082019050919050565b5f6020820190508181035f83015261197f81611946565b9050919050565b5f6119908261111f565b91507fffffffffffffffffffffffffffffffffffffffffffffffffffffffffffffffff82036119c2576119c16115cd565b5b600182019050919050565b7f50696e69677520706572766564696d6f2066756e6b63696a612069736b7669655f8201527f7374692067616c692074696b206472617564656a617300000000000000000000602082015250565b5f611a27603683611432565b9150611a32826119cd565b604082019050919050565b5f6020820190508181035f830152611a5481611a1b565b9050919050565b5f611a658261111f565b9150611a708361111f565b9250828203905081811115611a8857611a876115cd565b5b92915050565b7f4b6c69656e746173207475726920627574692073756d6f6b656a6573207669735f8201527f7573206d656e6573697573000000000000000000000000000000000000000000602082015250565b5f611ae8602b83611432565b9150611af382611a8e565b604082019050919050565b5f6020820190508181035f830152611b1581611adc565b9050919050565b7f537574617274796a65206e6572612070616b616e6b616d6169206c65737500005f82015250565b5f611b50601e83611432565b9150611b5b82611b1c565b602082019050919050565b5f6020820190508181035f830152611b7d81611b44565b9050919050565b5f81905092915050565b50565b5f611b9c5f83611b84565b9150611ba782611b8e565b5f82019050919050565b5f611bbb82611b91565b9150819050919050565b7f5472616e73616b63696a61206e65706176796b6f0000000000000000000000005f82015250565b5f611bf9601483611432565b9150611c0482611bc5565b602082019050919050565b5f6020820190508181035f830152611c2681611bed565b9050919050565b7f53756d6f6b6574692067616c692074696b206b6c69656e7461730000000000005f82015250565b5f611c61601a83611432565b9150611c6c82611c2d565b602082019050919050565b5f6020820190508181035f830152611c8e81611c55565b905091905056fea26469706673582212207cfe773a156fcdbbf989de6cbcdbf4f372029345802d8cad36574116a020f79664736f6c634300081e0033",
  "immutableReferences": {},
  "source": "// SPDX-License-Identifier: MIT\r\n\r\npragma solidity >=0.7.0 <0.9.0;\r\n\r\n/** \r\n * @title Draudimas\r\n * @dev Kliento apdraudimo implementacija\r\n */\r\ncontract Draudimas {\r\n\r\n    event gauta(uint suma, address draudejas);\r\n    event sumoketa(uint suma, address moketojas);\r\n    event uzregistruota(ivykioTipas ivykis, address klientas);\r\n\r\n    struct Draudejas {\r\n        address payable draudejoAddr;\r\n    }\r\n\r\n    struct Klientas {\r\n        address payable klientoAddr;\r\n        uint amzius;\r\n        sveikatosTipas sveikatosBukle;\r\n        //vairavimo istorija\r\n        profesijosTipas profesija;\r\n    }\r\n\r\n    struct Menesis {\r\n        uint suma;\r\n        bool sumokejo;\r\n        uint ivykiuSkaicius;\r\n        uint reikiamaSuma;\r\n        uint ismoketaSuma;\r\n    }\r\n\r\n    enum sveikatosTipas {\r\n        Tobula,\r\n        Gera,\r\n        Vidutine,\r\n        Prasta,\r\n        Bloga\r\n    }\r\n\r\n    enum profesijosTipas {\r\n        Studentas,\r\n        Protinis,\r\n        Fizinis,\r\n        Bedarbis\r\n    }\r\n\r\n    enum ivykioTipas {\r\n        Smulkus,\r\n        Vidutinis,\r\n        Stiprus\r\n    }\r\n\r\n   Draudejas public draudejas;\r\n   Klientas public klientas;\r\n   Menesis[] public menesiai;\r\n   uint public amount1 = 0;\r\n   uint public amount2 = 0;\r\n\r\n    constructor(address _klientoAddr, uint _amzius, sveikatosTipas _sveikata, profesijosTipas _profesija) {\r\n            require(_amzius >= 18, \"Klientas turi buti pilnametis\");\r\n            require(msg.sender != _klientoAddr, \"Draudejas negali buti klientas\");\r\n\r\n            draudejas = Draudejas({draudejoAddr: payable(msg.sender)});\r\n            klientas = Klientas({klientoAddr: payable(_klientoAddr), amzius: _amzius, sveikatosBukle: _sveikata, profesija: _profesija});\r\n            skaiciuotiSuma();\r\n    }\r\n\r\n    function skaiciuotiSuma() public {\r\n            require(msg.sender == draudejas.draudejoAddr, \"Skaiciuoti suma gali tik draudejas\");\r\n            uint reikiamaSuma = (klientas.amzius / 10) * 100000000000000000 + (uint(klientas.profesija) + 1) * 100000000000000000 + (uint(klientas.sveikatosBukle) + 1) * 100000000000000000;\r\n            menesiai.push(Menesis({suma: reikiamaSuma, sumokejo: false, ivykiuSkaicius: 0, reikiamaSuma: 0, ismoketaSuma: 0}));\r\n            emit gauta(reikiamaSuma, msg.sender);\r\n    }\r\n\r\n    function sumoketi() public payable {\r\n        require(msg.sender == klientas.klientoAddr, \"Sumoketi gali tik klientas\");\r\n        require(menesiai.length > 0, \"Draudejas nepateike nei vienos sumos\");\r\n        for (uint i=0; i < menesiai.length; i++) {\r\n            if (menesiai[i].sumokejo == false) {\r\n                require(msg.value == menesiai[i].suma, \"Mokejimo suma netinkama\");\r\n                menesiai[i].sumokejo = true;\r\n                emit sumoketa(menesiai[i].suma, msg.sender);\r\n                break;\r\n            }\r\n        }\r\n    }\r\n\r\n    function uzregistruotiIvyki(ivykioTipas ivykioLygis) public {\r\n        require(msg.sender == klientas.klientoAddr, \"Uzregistruoti ivyki gali tik klientas\");\r\n        require(menesiai.length > 0, \"Draudejas nepateike nei vienos sumos\");\r\n        int n = -1;\r\n        for (uint i=0; i < menesiai.length; i++) {\r\n            if (menesiai[i].sumokejo == true) {\r\n                n = int(i);\r\n            }\r\n        }\r\n        require(n != -1, \"nera uzmoketo menesio\");\r\n        menesiai[uint(n)].ivykiuSkaicius++;\r\n        menesiai[uint(n)].reikiamaSuma += (uint(ivykioLygis) + 1) * 1000000000000000000;\r\n    }\r\n\r\n    function ismoka(uint n) public payable {\r\n        require(msg.sender == draudejas.draudejoAddr, \"Ismoketi gali tik draudejas\");\r\n        require(menesiai.length >= n, \"Nera pateikta sio menesio mokejimo\");\r\n        require(msg.value == menesiai[n].reikiamaSuma, \"Mokejimo suma netinkama\");\r\n        menesiai[n].ismoketaSuma += menesiai[n].reikiamaSuma;\r\n        emit sumoketa(menesiai[n].ismoketaSuma, draudejas.draudejoAddr);\r\n    }\r\n\r\n    function pervestiPinigus() public payable {\r\n        require(msg.sender == draudejas.draudejoAddr, \"Pinigu pervedimo funkcija iskviesti gali tik draudejas\");\r\n        require(menesiai[menesiai.length - 1].sumokejo == true, \"Klientas turi buti sumokejes visus menesius\");\r\n        require(menesiai.length > 0, \"Draudejas nepateike nei vienos sumos\");\r\n        uint klientoSuma = (menesiai[0].suma * menesiai.length);\r\n\r\n        amount1 = address(this).balance;\r\n        require(amount1 > klientoSuma, \"Sutartyje nera pakankamai lesu\");\r\n\r\n        (bool success, ) = draudejas.draudejoAddr.call{value: klientoSuma}(\"\");\r\n        require(success, \"Transakcija nepavyko\");\r\n\r\n        amount2 = address(this).balance;\r\n        (success, ) = klientas.klientoAddr.call{value: amount2}(\"\");\r\n        require(success, \"Transakcija nepavyko\");\r\n\r\n    }\r\n\r\n    function getKlientas() external view returns (address klientoAddr, uint amzius, sveikatosTipas sveikata, profesijosTipas profesija) {\r\n    Klientas storage k = klientas;\r\n    return (k.klientoAddr, k.amzius, k.sveikatosBukle, k.profesija);\r\n    }\r\n\r\n    function getDraudejas() external view returns (address draudejoAddr) {\r\n    Draudejas storage d = draudejas;\r\n    return (d.draudejoAddr);\r\n    }\r\n\r\n    function gautiMenesi(uint i) public view returns(uint suma, bool sumokejo, uint ivykiuSkaicius, uint reikiamaSuma, uint ismoketaSuma) {\r\n        Menesis storage m = menesiai[i];\r\n        return (m.suma, m.sumokejo, m.ivykiuSkaicius, m.reikiamaSuma, m.ismoketaSuma);\r\n    }\r\n\r\n    function gautiBalansa() public view returns(uint) {\r\n        return address(this).balance;\r\n    }\r\n}",
  "sourcePath": "C:\\Users\\gurkl\\OneDrive\\Stalinis kompiuteris\\smart_contract\\contracts\\Draudimas.sol",
  "compiler": {
    "name": "solc",
    "version": "0.8.30+commit.73712a01.Emscripten.clang"
  },
  "schemaVersion": "3.4.16",
  "updatedAt": "2025-12-17T17:10:43.942Z",
  "networkType": "ethereum",
  "devdoc": {
    "details": "Kliento apdraudimo implementacija",
    "kind": "dev",
    "methods": {},
    "title": "Draudimas",
    "version": 1
  },
  "userdoc": {
    "kind": "user",
    "methods": {},
    "version": 1
  }
}