{
  "contractName": "Draudimas",
  "abi": [
    {
      "inputs": [
        {
          "internalType": "address",
          "name": "_klientoAddr",
          "type": "address"
        },
        {
          "internalType": "uint256",
          "name": "_amzius",
          "type": "uint256"
        },
        {
          "internalType": "enum Draudimas.sveikatosTipas",
          "name": "_sveikata",
          "type": "uint8"
        },
        {
          "internalType": "enum Draudimas.profesijosTipas",
          "name": "_profesija",
          "type": "uint8"
        }
      ],
      "stateMutability": "nonpayable",
      "type": "constructor"
    },
    {
      "anonymous": false,
      "inputs": [
        {
          "indexed": false,
          "internalType": "uint256",
          "name": "suma",
          "type": "uint256"
        },
        {
          "indexed": false,
          "internalType": "address",
          "name": "draudejas",
          "type": "address"
        }
      ],
      "name": "gauta",
      "type": "event"
    },
    {
      "anonymous": false,
      "inputs": [
        {
          "indexed": false,
          "internalType": "uint256",
          "name": "suma",
          "type": "uint256"
        },
        {
          "indexed": false,
          "internalType": "address",
          "name": "moketojas",
          "type": "address"
        }
      ],
      "name": "sumoketa",
      "type": "event"
    },
    {
      "anonymous": false,
      "inputs": [
        {
          "indexed": false,
          "internalType": "enum Draudimas.ivykioTipas",
          "name": "ivykis",
          "type": "uint8"
        },
        {
          "indexed": false,
          "internalType": "address",
          "name": "klientas",
          "type": "address"
        }
      ],
      "name": "uzregistruota",
      "type": "event"
    },
    {
      "inputs": [],
      "name": "draudejas",
      "outputs": [
        {
          "internalType": "address",
          "name": "draudejoAddr",
          "type": "address"
        }
      ],
      "stateMutability": "view",
      "type": "function",
      "constant": true
    },
    {
      "inputs": [],
      "name": "klientas",
      "outputs": [
        {
          "internalType": "address",
          "name": "klientoAddr",
          "type": "address"
        },
        {
          "internalType": "uint256",
          "name": "amzius",
          "type": "uint256"
        },
        {
          "internalType": "enum Draudimas.sveikatosTipas",
          "name": "sveikatosBukle",
          "type": "uint8"
        },
        {
          "internalType": "enum Draudimas.profesijosTipas",
          "name": "profesija",
          "type": "uint8"
        }
      ],
      "stateMutability": "view",
      "type": "function",
      "constant": true
    },
    {
      "inputs": [
        {
          "internalType": "uint256",
          "name": "",
          "type": "uint256"
        }
      ],
      "name": "menesiai",
      "outputs": [
        {
          "internalType": "uint256",
          "name": "suma",
          "type": "uint256"
        },
        {
          "internalType": "bool",
          "name": "sumoketa",
          "type": "bool"
        },
        {
          "internalType": "uint256",
          "name": "ivykiuSkaicius",
          "type": "uint256"
        },
        {
          "internalType": "uint256",
          "name": "ismoketaSuma",
          "type": "uint256"
        }
      ],
      "stateMutability": "view",
      "type": "function",
      "constant": true
    },
    {
      "inputs": [],
      "name": "skaiciuotiSuma",
      "outputs": [],
      "stateMutability": "nonpayable",
      "type": "function"
    },
    {
      "inputs": [],
      "name": "sumoketi",
      "outputs": [],
      "stateMutability": "payable",
      "type": "function",
      "payable": true
    },
    {
      "inputs": [
        {
          "internalType": "enum Draudimas.ivykioTipas",
          "name": "ivykioLygis",
          "type": "uint8"
        }
      ],
      "name": "uzregistruotiIvyki",
      "outputs": [],
      "stateMutability": "nonpayable",
      "type": "function"
    }
  ],
  "bytecode": "0x608060405234801561000f575f5ffd5b506040516118633803806118638339818101604052810190610031919061054a565b6012831015610075576040517f08c379a000000000000000000000000000000000000000000000000000000000815260040161006c90610608565b60405180910390fd5b8373ffffffffffffffffffffffffffffffffffffffff163373ffffffffffffffffffffffffffffffffffffffff16036100e3576040517f08c379a00000000000000000000000000000000000000000000000000000000081526004016100da90610670565b60405180910390fd5b60405180602001604052803373ffffffffffffffffffffffffffffffffffffffff168152505f5f820151815f015f6101000a81548173ffffffffffffffffffffffffffffffffffffffff021916908373ffffffffffffffffffffffffffffffffffffffff16021790555090505060405180608001604052808573ffffffffffffffffffffffffffffffffffffffff1681526020018481526020018360048111156101905761018f61068e565b5b81526020018260038111156101a8576101a761068e565b5b81525060015f820151815f015f6101000a81548173ffffffffffffffffffffffffffffffffffffffff021916908373ffffffffffffffffffffffffffffffffffffffff160217905550602082015181600101556040820151816002015f6101000a81548160ff021916908360048111156102255761022461068e565b5b021790555060608201518160020160016101000a81548160ff021916908360038111156102555761025461068e565b5b021790555090505061026b61027460201b60201c565b5050505061088c565b5f5f015f9054906101000a900473ffffffffffffffffffffffffffffffffffffffff1673ffffffffffffffffffffffffffffffffffffffff163373ffffffffffffffffffffffffffffffffffffffff1614610304576040517f08c379a00000000000000000000000000000000000000000000000000000000081526004016102fb9061072b565b60405180910390fd5b5f60646001806002015f9054906101000a900460ff16600481111561032c5761032b61068e565b5b6103369190610776565b61034091906107a9565b606460018060020160019054906101000a900460ff1660038111156103685761036761068e565b5b6103729190610776565b61037c91906107a9565b6064600a600180015461038f9190610817565b61039991906107a9565b6103a39190610776565b6103ad9190610776565b9050600460405180608001604052808381526020015f151581526020015f81526020015f815250908060018154018082558091505060019003905f5260205f2090600402015f909190919091505f820151815f01556020820151816001015f6101000a81548160ff021916908315150217905550604082015181600201556060820151816003015550507f2e46c8fcad6b9583734b0c29e587f0d9e237d4df447a8b7d9ff90000b27cbb798133604051610468929190610865565b60405180910390a150565b5f5ffd5b5f73ffffffffffffffffffffffffffffffffffffffff82169050919050565b5f6104a082610477565b9050919050565b6104b081610496565b81146104ba575f5ffd5b50565b5f815190506104cb816104a7565b92915050565b5f819050919050565b6104e3816104d1565b81146104ed575f5ffd5b50565b5f815190506104fe816104da565b92915050565b60058110610510575f5ffd5b50565b5f8151905061052181610504565b92915050565b60048110610533575f5ffd5b50565b5f8151905061054481610527565b92915050565b5f5f5f5f6080858703121561056257610561610473565b5b5f61056f878288016104bd565b9450506020610580878288016104f0565b935050604061059187828801610513565b92505060606105a287828801610536565b91505092959194509250565b5f82825260208201905092915050565b7f4b6c69656e746173207475726920627574692070696c6e616d657469730000005f82015250565b5f6105f2601d836105ae565b91506105fd826105be565b602082019050919050565b5f6020820190508181035f83015261061f816105e6565b9050919050565b7f4472617564656a6173206e6567616c692062757469206b6c69656e74617300005f82015250565b5f61065a601e836105ae565b915061066582610626565b602082019050919050565b5f6020820190508181035f8301526106878161064e565b9050919050565b7f4e487b71000000000000000000000000000000000000000000000000000000005f52602160045260245ffd5b7f536b61696369756f74692073756d612067616c692074696b206472617564656a5f8201527f6173000000000000000000000000000000000000000000000000000000000000602082015250565b5f6107156022836105ae565b9150610720826106bb565b604082019050919050565b5f6020820190508181035f83015261074281610709565b9050919050565b7f4e487b71000000000000000000000000000000000000000000000000000000005f52601160045260245ffd5b5f610780826104d1565b915061078b836104d1565b92508282019050808211156107a3576107a2610749565b5b92915050565b5f6107b3826104d1565b91506107be836104d1565b92508282026107cc816104d1565b915082820484148315176107e3576107e2610749565b5b5092915050565b7f4e487b71000000000000000000000000000000000000000000000000000000005f52601260045260245ffd5b5f610821826104d1565b915061082c836104d1565b92508261083c5761083b6107ea565b5b828204905092915050565b610850816104d1565b82525050565b61085f81610496565b82525050565b5f6040820190506108785f830185610847565b6108856020830184610856565b9392505050565b610fca806108995f395ff3fe608060405260043610610054575f3560e01c80636ab007881461005857806395356e7514610097578063aa0484ef146100ad578063bcc0e8e3146100d7578063c5d53a07146100ff578063d33ad50e1461012c575b5f5ffd5b348015610063575f5ffd5b5061007e6004803603810190610079919061097f565b610136565b60405161008e94939291906109d3565b60405180910390f35b3480156100a2575f5ffd5b506100ab61017d565b005b3480156100b8575f5ffd5b506100c161037c565b6040516100ce9190610a55565b60405180910390f35b3480156100e2575f5ffd5b506100fd60048036038101906100f89190610a91565b6103a5565b005b34801561010a575f5ffd5b506101136105cb565b6040516101239493929190610b75565b60405180910390f35b610134610620565b005b60048181548110610145575f80fd5b905f5260205f2090600402015f91509050805f015490806001015f9054906101000a900460ff16908060020154908060030154905084565b5f5f015f9054906101000a900473ffffffffffffffffffffffffffffffffffffffff1673ffffffffffffffffffffffffffffffffffffffff163373ffffffffffffffffffffffffffffffffffffffff161461020d576040517f08c379a000000000000000000000000000000000000000000000000000000000815260040161020490610c38565b60405180910390fd5b5f60646001806002015f9054906101000a900460ff16600481111561023557610234610abc565b5b61023f9190610c83565b6102499190610cb6565b606460018060020160019054906101000a900460ff16600381111561027157610270610abc565b5b61027b9190610c83565b6102859190610cb6565b6064600a60018001546102989190610d24565b6102a29190610cb6565b6102ac9190610c83565b6102b69190610c83565b9050600460405180608001604052808381526020015f151581526020015f81526020015f815250908060018154018082558091505060019003905f5260205f2090600402015f909190919091505f820151815f01556020820151816001015f6101000a81548160ff021916908315150217905550604082015181600201556060820151816003015550507f2e46c8fcad6b9583734b0c29e587f0d9e237d4df447a8b7d9ff90000b27cbb798133604051610371929190610d54565b60405180910390a150565b5f805f015f9054906101000a900473ffffffffffffffffffffffffffffffffffffffff16905081565b60015f015f9054906101000a900473ffffffffffffffffffffffffffffffffffffffff1673ffffffffffffffffffffffffffffffffffffffff163373ffffffffffffffffffffffffffffffffffffffff1614610436576040517f08c379a000000000000000000000000000000000000000000000000000000000815260040161042d90610deb565b60405180910390fd5b5f6004805490501161047d576040517f08c379a000000000000000000000000000000000000000000000000000000000815260040161047490610e79565b60405180910390fd5b5f7fffffffffffffffffffffffffffffffffffffffffffffffffffffffffffffffff90505f5f90505b6004805490508110156104ff5760011515600482815481106104cb576104ca610e97565b5b905f5260205f2090600402016001015f9054906101000a900460ff161515036104f2578091505b80806001019150506104a6565b507fffffffffffffffffffffffffffffffffffffffffffffffffffffffffffffffff8103610562576040517f08c379a000000000000000000000000000000000000000000000000000000000815260040161055990610f0e565b60405180910390fd5b61056c81836107ef565b7fceeefcb457fa652a5d548c9be1ff7e23ec8ff5fd7b4eb405ceec3cc31fd3677c600482815481106105a1576105a0610e97565b5b905f5260205f2090600402015f0154336040516105bf929190610d54565b60405180910390a15050565b6001805f015f9054906101000a900473ffffffffffffffffffffffffffffffffffffffff1690806001015490806002015f9054906101000a900460ff16908060020160019054906101000a900460ff16905084565b60015f015f9054906101000a900473ffffffffffffffffffffffffffffffffffffffff1673ffffffffffffffffffffffffffffffffffffffff163373ffffffffffffffffffffffffffffffffffffffff16146106b1576040517f08c379a00000000000000000000000000000000000000000000000000000000081526004016106a890610f76565b60405180910390fd5b5f600480549050116106f8576040517f08c379a00000000000000000000000000000000000000000000000000000000081526004016106ef90610e79565b60405180910390fd5b5f5f90505b6004805490508110156107ec575f15156004828154811061072157610720610e97565b5b905f5260205f2090600402016001015f9054906101000a900460ff161515036107df5760016004828154811061075a57610759610e97565b5b905f5260205f2090600402016001015f6101000a81548160ff0219169083151502179055507fceeefcb457fa652a5d548c9be1ff7e23ec8ff5fd7b4eb405ceec3cc31fd3677c600482815481106107b4576107b3610e97565b5b905f5260205f2090600402015f0154336040516107d2929190610d54565b60405180910390a16107ec565b80806001019150506106fd565b50565b6064600182600281111561080657610805610abc565b5b6108109190610c83565b61081a9190610cb6565b6004838154811061082e5761082d610e97565b5b905f5260205f209060040201600301546108489190610c83565b6004838154811061085c5761085b610e97565b5b905f5260205f2090600402016003018190555060016004838154811061088557610884610e97565b5b905f5260205f2090600402016002015461089f9190610c83565b600483815481106108b3576108b2610e97565b5b905f5260205f209060040201600201819055507fceeefcb457fa652a5d548c9be1ff7e23ec8ff5fd7b4eb405ceec3cc31fd3677c600483815481106108fb576108fa610e97565b5b905f5260205f209060040201600301545f5f015f9054906101000a900473ffffffffffffffffffffffffffffffffffffffff1660405161093c929190610d54565b60405180910390a15050565b5f5ffd5b5f819050919050565b61095e8161094c565b8114610968575f5ffd5b50565b5f8135905061097981610955565b92915050565b5f6020828403121561099457610993610948565b5b5f6109a18482850161096b565b91505092915050565b6109b38161094c565b82525050565b5f8115159050919050565b6109cd816109b9565b82525050565b5f6080820190506109e65f8301876109aa565b6109f360208301866109c4565b610a0060408301856109aa565b610a0d60608301846109aa565b95945050505050565b5f73ffffffffffffffffffffffffffffffffffffffff82169050919050565b5f610a3f82610a16565b9050919050565b610a4f81610a35565b82525050565b5f602082019050610a685f830184610a46565b92915050565b60038110610a7a575f5ffd5b50565b5f81359050610a8b81610a6e565b92915050565b5f60208284031215610aa657610aa5610948565b5b5f610ab384828501610a7d565b91505092915050565b7f4e487b71000000000000000000000000000000000000000000000000000000005f52602160045260245ffd5b60058110610afa57610af9610abc565b5b50565b5f819050610b0a82610ae9565b919050565b5f610b1982610afd565b9050919050565b610b2981610b0f565b82525050565b60048110610b4057610b3f610abc565b5b50565b5f819050610b5082610b2f565b919050565b5f610b5f82610b43565b9050919050565b610b6f81610b55565b82525050565b5f608082019050610b885f830187610a46565b610b9560208301866109aa565b610ba26040830185610b20565b610baf6060830184610b66565b95945050505050565b5f82825260208201905092915050565b7f536b61696369756f74692073756d612067616c692074696b206472617564656a5f8201527f6173000000000000000000000000000000000000000000000000000000000000602082015250565b5f610c22602283610bb8565b9150610c2d82610bc8565b604082019050919050565b5f6020820190508181035f830152610c4f81610c16565b9050919050565b7f4e487b71000000000000000000000000000000000000000000000000000000005f52601160045260245ffd5b5f610c8d8261094c565b9150610c988361094c565b9250828201905080821115610cb057610caf610c56565b5b92915050565b5f610cc08261094c565b9150610ccb8361094c565b9250828202610cd98161094c565b91508282048414831517610cf057610cef610c56565b5b5092915050565b7f4e487b71000000000000000000000000000000000000000000000000000000005f52601260045260245ffd5b5f610d2e8261094c565b9150610d398361094c565b925082610d4957610d48610cf7565b5b828204905092915050565b5f604082019050610d675f8301856109aa565b610d746020830184610a46565b9392505050565b7f557a72656769737472756f7469206976796b692067616c692074696b206b6c695f8201527f656e746173000000000000000000000000000000000000000000000000000000602082015250565b5f610dd5602583610bb8565b9150610de082610d7b565b604082019050919050565b5f6020820190508181035f830152610e0281610dc9565b9050919050565b7f4472617564656a6173206e6570617465696b65206e6569207669656e6f7320735f8201527f756d6f7300000000000000000000000000000000000000000000000000000000602082015250565b5f610e63602483610bb8565b9150610e6e82610e09565b604082019050919050565b5f6020820190508181035f830152610e9081610e57565b9050919050565b7f4e487b71000000000000000000000000000000000000000000000000000000005f52603260045260245ffd5b7f6e65726120757a6d6f6b65746f206d656e6573696f00000000000000000000005f82015250565b5f610ef8601583610bb8565b9150610f0382610ec4565b602082019050919050565b5f6020820190508181035f830152610f2581610eec565b9050919050565b7f53756d6f6b6574692067616c692074696b206b6c69656e7461730000000000005f82015250565b5f610f60601a83610bb8565b9150610f6b82610f2c565b602082019050919050565b5f6020820190508181035f830152610f8d81610f54565b905091905056fea2646970667358221220ad0835fe86afa503addf95ed091d2b24b5e1d3b0fda27d1b6f348306086b2ded64736f6c634300081e0033",
  "immutableReferences": {},
  "source": "// SPDX-License-Identifier: MIT\r\n\r\npragma solidity >=0.7.0 <0.9.0;\r\n\r\n/** \r\n * @title Draudimas\r\n * @dev Kliento apdraudimo implementacija\r\n */\r\ncontract Draudimas {\r\n\r\n    event gauta(uint suma, address draudejas);\r\n    event sumoketa(uint suma, address moketojas);\r\n    event uzregistruota(ivykioTipas ivykis, address klientas);\r\n\r\n    struct Draudejas {\r\n        address draudejoAddr;\r\n    }\r\n\r\n    struct Klientas {\r\n        address klientoAddr;\r\n        uint amzius;\r\n        sveikatosTipas sveikatosBukle;\r\n        //vairavimo istorija\r\n        profesijosTipas profesija;\r\n    }\r\n\r\n    struct Menesis {\r\n        uint suma;\r\n        bool sumoketa;\r\n        uint ivykiuSkaicius;\r\n        uint ismoketaSuma;\r\n    }\r\n\r\n    enum sveikatosTipas {\r\n        Tobula,\r\n        Gera,\r\n        Vidutine,\r\n        Prasta,\r\n        Bloga\r\n    }\r\n\r\n    enum profesijosTipas {\r\n        Studentas,\r\n        Protinis,\r\n        Fizinis,\r\n        Bedarbis\r\n    }\r\n\r\n    enum ivykioTipas {\r\n        Smulkus,\r\n        Vidutinis,\r\n        Stiprus\r\n    }\r\n\r\n   Draudejas public draudejas;\r\n   Klientas public klientas;\r\n   Menesis[] public menesiai;\r\n\r\n    constructor(address _klientoAddr, uint _amzius, sveikatosTipas _sveikata, profesijosTipas _profesija) {\r\n            require(_amzius >= 18, \"Klientas turi buti pilnametis\");\r\n            require(msg.sender != _klientoAddr, \"Draudejas negali buti klientas\");\r\n\r\n            draudejas = Draudejas({draudejoAddr: msg.sender});\r\n            klientas = Klientas({klientoAddr: _klientoAddr, amzius: _amzius, sveikatosBukle: _sveikata, profesija: _profesija});\r\n            skaiciuotiSuma();\r\n    }\r\n\r\n    function skaiciuotiSuma() public {\r\n            require(msg.sender == draudejas.draudejoAddr, \"Skaiciuoti suma gali tik draudejas\");\r\n            uint reikiamaSuma = (klientas.amzius / 10) * 100 + (uint(klientas.profesija) + 1) * 100 + (uint(klientas.sveikatosBukle) + 1) * 100;\r\n            menesiai.push(Menesis({suma: reikiamaSuma, sumoketa: false, ivykiuSkaicius: 0, ismoketaSuma: 0}));\r\n            emit gauta(reikiamaSuma, msg.sender);\r\n    }\r\n\r\n    function sumoketi() public payable {\r\n        require(msg.sender == klientas.klientoAddr, \"Sumoketi gali tik klientas\");\r\n        require(menesiai.length > 0, \"Draudejas nepateike nei vienos sumos\");\r\n        for (uint i=0; i < menesiai.length; i++) {\r\n            if (menesiai[i].sumoketa == false) {\r\n                menesiai[i].sumoketa = true;\r\n                emit sumoketa(menesiai[i].suma, msg.sender);\r\n                break;\r\n            }\r\n        }\r\n    }\r\n\r\n    function uzregistruotiIvyki(ivykioTipas ivykioLygis) public {\r\n        require(msg.sender == klientas.klientoAddr, \"Uzregistruoti ivyki gali tik klientas\");\r\n        require(menesiai.length > 0, \"Draudejas nepateike nei vienos sumos\");\r\n        int n = -1;\r\n        for (uint i=0; i < menesiai.length; i++) {\r\n            if (menesiai[i].sumoketa == true) {\r\n                n = int(i);\r\n            }\r\n        }\r\n        require(n != -1, \"nera uzmoketo menesio\");\r\n        ismoka(uint(n), ivykioLygis);\r\n        emit sumoketa(menesiai[uint(n)].suma, msg.sender);\r\n    }\r\n\r\n    function ismoka(uint n, ivykioTipas ivykioLygis) private {\r\n        menesiai[n].ismoketaSuma = menesiai[n].ismoketaSuma + (uint(ivykioLygis) + 1) * 100;\r\n        menesiai[n].ivykiuSkaicius = menesiai[n].ivykiuSkaicius + 1;\r\n        emit sumoketa(menesiai[n].ismoketaSuma, draudejas.draudejoAddr);\r\n    }\r\n}",
  "sourcePath": "C:\\Users\\gurkl\\OneDrive\\Stalinis kompiuteris\\smart_contract\\contracts\\Draudimas.sol",
  "compiler": {
    "name": "solc",
    "version": "0.8.30+commit.73712a01.Emscripten.clang"
  },
  "schemaVersion": "3.4.16",
  "updatedAt": "2025-12-15T10:45:56.425Z",
  "networkType": "ethereum",
  "devdoc": {
    "details": "Kliento apdraudimo implementacija",
    "kind": "dev",
    "methods": {},
    "title": "Draudimas",
    "version": 1
  },
  "userdoc": {
    "kind": "user",
    "methods": {},
    "version": 1
  }
}